:040000006BEF00F0B2
:100008005582FACF60F0FBCF61F0E9CF62F0EACF1A
:1000180063F0E1CF64F0E2CF65F0D9CF66F0DACFD4
:1000280067F0F3CF68F0F4CF69F0F6CF6AF0F7CF56
:100038006BF0F8CF6CF0F5CF6DF00E01C2AB27EF87
:1000480000F029EF00F034EF00F0CAAB2EEF00F01B
:1000580030EF00F034EF00F078EC53F04DEF00F0A3
:10006800F2AC39EF00F03BEF00F04DEF00F0C6A125
:1000780040EF00F042EF00F04DEF00F0CEA147EF67
:1000880000F049EF00F04DEF00F0FAEC55F04DEFBD
:1000980000F06DC0F5FF6CC0F8FF6BC0F7FF6AC0D9
:1000A800F6FF69C0F4FF68C0F3FF67C0DAFF66C0F7
:1000B800D9FF65C0E2FF64C0E1FF63C0EAFF62C028
:1000C800E9FF61C0FBFF60C0FAFF5592110049EFDC
:1000D80043F00101546B20EE2DF0BD51D926BE51DD
:1000E800DA22DF50586F20EE2EF0BD51D926BE51CE
:1000F800DA22DF50576FBDC1D9FFBEC1DAFFDECFAC
:100108006EF0DDCF6FF043EC54F00009D8B48FEFF8
:1001180000F091EF00F006EF0DF0090E0101576FA6
:100128008AEC56F006EF0DF020EE02F0BD51D9260C
:10013800BE51DA22A9C1DEFFAAC1DEFFABC1DEFFD4
:10014800ACC1DEFF20EE06F0BD51D926BE51DA2241
:10015800D0C1DEFFD1C1DDFF20EE14F0BD51D9269C
:10016800BE51DA22DE6ADE6ADE6ADD6A21EED4F08A
:1001780010EE08F0BD51E126BE51E222DECFE6FFC7
:10018800DECFE6FFDECFE6FFDECFE6FF20EE08F0AB
:10019800BD51D926BE51DA22DECF3FF1DECF40F184
:1001A800DECF41F1DECF42F1010E3F25436F000E55
:1001B8004021446F000E4121456F000E4221466FD9
:1001C80020EE0CF0BD51D926BE51DA2243C1DEFF24
:1001D80044C1DEFF45C1DEFF46C1DEFFDE51406F90
:1001E8003F6B21EEDEF0DECF41F1DDCF42F142C1BF
:1001F80041F1426BFF0E4117000E42173F5141116A
:10020800436F40514211446F20EE18F0BD51D9267A
:10021800BE51DA2243C1DEFF44C1DDFF20EE1CF0EF
:10022800BD51D926BE51DA22E8C1DEFFE9C1DDFFA2
:1002380020EE38F0BD51D926BE51DA22120EDF6EFB
:1002480020EE33F0BD51D926BE51DA22020EDE6E01
:10025800000EDD6E20EE35F0BD51D926BE51DA22F2
:10026800020EDE6E000EDD6E20EE37F0BD51D9268F
:10027800BE51DA22030EDF6EBDC1DEF0BEC1DFF073
:1002880011EC11F0030E0101586F46EF0DF001015A
:10029800586BBDC16EF0BEC16FF077EC40F046EF11
:1002A8000DF057513F6F406B4051000AD8B45FEFD3
:1002B80001F046EF0DF03F51000AD8B44BEF01F0C2
:1002C800030AD8B498EF00F046EF0DF046EF0DF0B2
:1002D80021EED4F010EE08F0BD51E126BE51E22225
:1002E800DECFE6FFDECFE6FFDECFE6FFDECFE6FFBE
:1002F800010ED4253F6F000ED521406F000ED62188
:10030800416F000ED721426F20EE0CF0BD51D92667
:10031800BE51DA223FC1DEFF40C1DEFF41C1DEFF30
:1003280042C1DEFFDE51406F3F6B21EEDEF0DECFD3
:1003380041F1DDCF42F142C141F1426BFF0E41175D
:10034800000E42173F514111436F40514211446F13
:1003580020EE18F0BD51D926BE51DA2243C1DEFF86
:1003680044C1DDFF20EE1CF0BD51D926BE51DA2272
:10037800E8C1DEFFE9C1DDFF20EE33F0BD51D9262B
:10038800BE51DA22020EDE6E000EDD6E20EE35F072
:10039800BD51D926BE51DA22020EDE6E000EDD6E88
:1003A80020EE37F0BD51D926BE51DA22030EDF6E9A
:1003B80020EE38F0BD51D926BE51DA22120EDF6E7A
:1003C80040EF01F020EE33F0BD51D926BE51DA22BC
:1003D800DE6ADD6A20EE10F0BD51D926BE51DA2260
:1003E800DECF3FF1DECF40F1DECF41F1DECF42F18B
:1003F800010E3F25436F000E4021446F000E41213E
:10040800456F000E4221466FD85143190DE1D9516D
:1004180044190AE1DA51451907E1DB514619D8A414
:1004280018EF02F01AEF02F0BBEF02F020EE10F026
:10043800BD51D926BE51DA22DECF3FF1DECF40F1E1
:10044800DECF41F1DECF42F1010E3F25436F000EB2
:100458004021446F000E4121456F000E4221466F36
:1004680020EE10F0BD51D926BE51DA2243C1DEFF7D
:1004780044C1DEFF45C1DEFF46C1DEFF20EE38F095
:10048800BD51D926BE51DA22100EDF6E21EED4F00E
:1004980010EE08F0BD51E126BE51E222DECFE6FFA4
:1004A800DECFE6FFDECFE6FFDECFE6FF010ED42586
:1004B8003F6F000ED521406F000ED621416F000E10
:1004C800D721426F20EE0CF0BD51D926BE51DA2259
:1004D8003FC1DEFF40C1DEFF41C1DEFF42C1DEFF9A
:1004E800DE51406F3F6B21EEDEF0DECF41F1DDCF14
:1004F80042F142C141F1426BFF0E4117000E421713
:100508003F514111436F40514211446F20EE18F0A2
:10051800BD51D926BE51DA2243C1DEFF44C1DDFFF9
:1005280020EE1CF0BD51D926BE51DA22E8C1DEFF0B
:10053800E9C1DDFF010E476FBDC1DEF0BEC1DFF0CE
:1005480011EC11F001014719D8A4ADEF02F0AFEF9B
:1005580002F046EF0DF0040E586F20EE39F0BD5151
:10056800D926BE51DA22030EDF6E46EF0DF021EEDA
:10057800D8F010EE10F0BD51E126BE51E222DECFD8
:10058800E6FFDECFE6FFDECFE6FFDECFE6FF20EEBA
:1005980038F0BD51D926BE51DA22140EDF6E010E95
:1005A800486FBDC1DEF0BEC1DFF011EC11F00101F2
:1005B8004819D8A4E2EF02F0E4EF02F046EF0DF09C
:1005C8004BEF01F020EE33F0BD51D926BE51DA22AF
:1005D800DE6ADD6A20EE10F0BD51D926BE51DA225E
:1005E800DECF3FF1DECF40F1DECF41F1DECF42F189
:1005F800010E3F25436F000E4021446F000E41213C
:10060800456F000E4221466FD85143190DE1D9516B
:1006180044190AE1DA51451907E1DB514619D8A412
:1006280018EF03F01AEF03F0AAEF03F020EE10F032
:10063800BD51D926BE51DA22DECF3FF1DECF40F1DF
:10064800DECF41F1DECF42F1010E3F25436F000EB0
:100658004021446F000E4121456F000E4221466F34
:1006680020EE10F0BD51D926BE51DA2243C1DEFF7B
:1006780044C1DEFF45C1DEFF46C1DEFF20EE38F093
:10068800BD51D926BE51DA22100EDF6E21EED4F00C
:1006980010EE08F0BD51E126BE51E222DECFE6FFA2
:1006A800DECFE6FFDECFE6FFDECFE6FF010ED42584
:1006B8003F6F000ED521406F000ED621416F000E0E
:1006C800D721426F20EE0CF0BD51D926BE51DA2257
:1006D8003FC1DEFF40C1DEFF41C1DEFF42C1DEFF98
:1006E800DE51406F3F6B21EEDEF0DECF41F1DDCF12
:1006F80042F142C141F1426BFF0E4117000E421711
:100708003F514111436F40514211446F20EE18F0A0
:10071800BD51D926BE51DA2243C1DEFF44C1DDFFF7
:1007280020EE1CF0BD51D926BE51DA22E8C1DEFF09
:10073800E9C1DDFF040E586F20EE39F0BD51D9260E
:10074800BE51DA22030EDF6E46EF0DF021EED8F02F
:1007580010EE10F0BD51E126BE51E222DECFE6FFD9
:10076800DECFE6FFDECFE6FFDECFE6FF20EE38F095
:10077800BD51D926BE51DA22040EDF6E010E496F33
:10078800BDC1DEF0BEC1DFF011EC11F00101491965
:10079800D8A4D1EF03F0D3EF03F046EF0DF04BEF01
:1007A80001F020EE37F0BD51D926BE51DA22DF50D4
:1007B800D8B4E1EF03F0E3EF03F01CEF04F0010E0F
:1007C8004A6FBDC1DEF0BEC1DFF011EC11F00101CE
:1007D8004A19D8A4F2EF03F0F4EF03F046EF0DF056
:1007E80020EE38F0BD51D926BE51DA22DFA4FFEF42
:1007F80003F001EF04F003EF04F04BEF01F020EEFB
:1008080038F0BD51D926BE51DA22DFA80EEF04F028
:1008180010EF04F06AEF01F0040E586F20EE39F083
:10082800BD51D926BE51DA22030EDF6E46EF0DF018
:1008380020EE38F0BD51D926BE51DA22040EDF6E03
:10084800010E4B6FBDC1DEF0BEC1DFF011EC11F03F
:1008580001014B19D8A433EF04F035EF04F046EF4B
:100868000DF04BEF01F057513F6F406B4051000ABC
:10087800D8B441EF04F046EF0DF03F51000AD8B468
:100888004BEF01F0030AD8B46CEF01F0070AD8B4B3
:10089800E6EF02F0010AD8B4E6EF01F00C0AD8B48A
:1008A8004BEF01F0030AD8B44BEF01F0060AD8B4B5
:1008B800D5EF03F046EF0DF0BDC1D9FFBEC1DAFF99
:1008C800D251DE1807E1D351DE18D8A46EEF04F038
:1008D80070EF04F046EF0DF020EE33F0BD51D9264D
:1008E800BE51DA22DE6ADD6A20EE02F0BD51D92659
:1008F800BE51DA22A951DE180DE1AA51DE180AE12B
:10090800AB51DE1807E1AC51DE18D8A48EEF04F025
:1009180090EF04F0D0EF04F020EE06F0BD51D92698
:10092800BE51DA22D051DE1807E1D151DE18D8A421
:10093800A0EF04F0A2EF04F0D0EF04F020EE10F0E6
:10094800BD51D926BE51DA22DECF3FF1DECF40F1CC
:10095800DECF41F1DECF42F1010E3F25436F000E9D
:100968004021446F000E4121456F000E4221466F21
:10097800D85143190DE1D95144190AE1DA51451901
:1009880007E1DB514619D8A4CCEF04F0CEEF04F010
:10099800D0EF04F0040E586F20EE39F0BD51D9267F
:1009A800BE51DA22030EDF6E46EF0DF020EE02F0A4
:1009B800BD51D926BE51DA22A951DE180DE1AA513E
:1009C800DE180AE1AB51DE1807E1AC51DE18D8A4F5
:1009D800F0EF04F0F2EF04F046EF0DF020EE06F031
:1009E800BD51D926BE51DA22D051DE1807E1D151C6
:1009F800DE18D8A402EF05F004EF05F046EF0DF07D
:100A080020EE0CF0BD51D926BE51DA22D451DE18A1
:100A18000DE1D551DE180AE1D651DE1807E1D751AC
:100A2800DE18D8A41AEF05F01CEF05F046EF0DF01C
:100A380020EE10F0BD51D926BE51DA22DECF3FF1AB
:100A4800DECF40F1DECF41F1DECF42F1010E3F258E
:100A5800436F000E4021446F000E4121456F000E88
:100A68004221466FD85143190DE1D95144190AE181
:100A7800DA51451907E1DB514619D8A446EF05F0CC
:100A880048EF05F046EF0DF020EE10F0BD51D926E5
:100A9800BE51DA22DECF3FF1DECF40F1DECF41F1A9
:100AA800DECF42F1010E3F25436F000E4021446F17
:100AB800000E4121456F000E4221466F20EE10F0D6
:100AC800BD51D926BE51DA2243C1DEFF44C1DEFF43
:100AD80045C1DEFF46C1DEFF20EE33F0BD51D92609
:100AE800BE51DA22DE6ADD6A040E586F20EE39F054
:100AF800BD51D926BE51DA22030EDF6E46EF0DF046
:100B080020EE33F0BD51D926BE51DA22DE6ADD6A05
:100B180020EE38F0BD51D926BE51DA22010EDF6E23
:100B280020EE33F0BD51D926BE51DA22020EDE6E18
:100B3800000EDD6E20EE35F0BD51D926BE51DA2209
:100B4800020EDE6E000EDD6E20EE37F0BD51D926A6
:100B5800BE51DA22050EDF6E050E586FBDC1DEF0FC
:100B6800BEC1DFF011EC11F046EF0DF0BDC1D9FFA9
:100B7800BEC1DAFFD251DE1807E1D351DE18D8A47E
:100B8800C8EF05F0CAEF05F046EF0DF020EE0CF0C7
:100B9800BD51D926BE51DA22D451DE180DE1D55106
:100BA800DE180AE1D651DE1807E1D751DE18D8A4BD
:100BB800E0EF05F0E2EF05F046EF0DF020EE02F071
:100BC800BD51D926BE51DA22DE6ADE6ADE6ADD6AE6
:100BD80020EE06F0BD51D926BE51DA22DE6ADD6A62
:100BE80020EE10F0BD51D926BE51DA22DE6ADE6A47
:100BF800DE6ADD6A20EE14F0BD51D926BE51DA2234
:100C0800DE6ADE6ADE6ADD6A20EE08F0BD51D926AA
:100C1800BE51DA22DE6ADE6ADE6ADD6A20EE0CF098
:100C2800BD51D926BE51DA22DE6ADE6ADE6ADD6A85
:100C380020EE18F0BD51D926BE51DA22DE6ADD6AEF
:100C480020EE1CF0BD51D926BE51DA22B40EDE6E5C
:100C5800050EDD6E010E586F46EF0DF020EE37F0F1
:100C6800BD51D926BE51DA22DF50D8B43EEF06F086
:100C780040EF06F042EF06F0B2EF05F020EE38F054
:100C8800BD51D926BE51DA22040EDF6E010E4C6F1B
:100C9800BDC1DEF0BEC1DFF011EC11F001014C194D
:100CA800D8A459EF06F05BEF06F046EF0DF020EE02
:100CB80002F0BD51D926BE51DA22DE6ADE6ADE6A4A
:100CC800DD6A20EE06F0BD51D926BE51DA22DE6A71
:100CD800DD6A20EE10F0BD51D926BE51DA22DE6A57
:100CE800DE6ADE6ADD6A20EE14F0BD51D926BE51F7
:100CF800DA22DE6ADE6ADE6ADD6A20EE08F0BD51BD
:100D0800D926BE51DA22DE6ADE6ADE6ADD6A20EEA4
:100D18000CF0BD51D926BE51DA22DE6ADE6ADE6ADF
:100D2800DD6A20EE18F0BD51D926BE51DA22DE6AFE
:100D3800DD6A20EE1CF0BD51D926BE51DA22B40E70
:100D4800DE6E050EDD6E2EEF06F057513F6F406BDD
:100D58004051000AD8B4B3EF06F046EF0DF03F510A
:100D6800000AD8B484EF05F0040AD8B4DAEF04F026
:100D7800010AD8B460EF04F00C0AD8B4BAEF05F051
:100D8800030AD8B4BAEF05F0060AD8B432EF06F071
:100D980046EF0DF020EE02F0BD51D926BE51DA2201
:100DA800A951DE180DE1AA51DE180AE1AB51DE188F
:100DB80007E1AC51DE18D8A4E4EF06F0E6EF06F040
:100DC80046EF0DF020EE0CF0BD51D926BE51DA22C7
:100DD800D451DE180DE1D551DE180AE1D651DE18DE
:100DE80007E1D751DE18D8A4FCEF06F0FEEF06F0B5
:100DF80046EF0DF020EE14F0BD51D926BE51DA228F
:100E0800D851DE5CD951DE58DA51DE58DB51DE5854
:100E1800D8B011EF07F013EF07F046EF0DF020EE12
:100E280010F0BD51D926BE51DA22DECF3FF1DECF18
:100E380040F1DECF41F1DECF42F1010E3F25436F95
:100E4800000E4021446F000E4121456F000E4221E3
:100E5800466FD851435DD9514459DA514559DB5150
:100E68004659D8A03AEF07F03CEF07F06AEF01F0D7
:100E780020EE10F0BD51D926BE51DA22DECF3FF167
:100E8800DDCF40F1D8513F5D556FD9514059566F6C
:100E980020EE25F0BD51D926BE51DA22DECF3FF132
:100EA800DDCF40F155513F5F5651405B20EE25F0B4
:100EB800BD51D926BE51DA223FC1DEFF40C1DDFF58
:100EC80020EE27F0BD51D926BE51DA22DECF3FF100
:100ED800DDCF40F155513F275651402320EE27F0F2
:100EE800BD51D926BE51DA223FC1DEFF40C1DDFF28
:100EF80021EED8F0FF0EDE243F6FFF0EDE20406F9C
:100F0800FF0EDE20416FFF0EDE20426F20EE14F050
:100F1800BD51D926BE51DA223FC1DEFF40C1DEFFF6
:100F280041C1DEFF42C1DEFF21EED8F010EE10F025
:100F3800BD51E126BE51E222DECFE6FFDECFE6FF5D
:100F4800DECFE6FFDECFE6FFB751B811D8A4AFEF8A
:100F580007F0B1EF07F0BFEF07F020EE10F0BD513A
:100F6800D926BE51DA22DECF2AF2DECF2BF2DECF2F
:100F78002CF2DECF2DF220EE27F0BD51D926BE513E
:100F8800DA22DE50DE10D8A4CCEF07F0CEEF07F05F
:100F9800EEEF07F020EE29F0BD51D926BE51DA2236
:100FA800020EDE18D8A4DBEF07F0DDEF07F06BEFD9
:100FB80008F020EE29F0BD51D926BE51DA22DF6AA9
:100FC80020EE33F0BD51D926BE51DA22DE6ADD6A41
:100FD8006BEF08F0B751B811D8B4F5EF07F0F7EF99
:100FE80007F01BEF08F020EE25F0BD51D926BE51C1
:100FF800DA22B5C1DEFFB6C1DDFF20EE2AF0BD5111
:10100800D926BE51DA22B7C1DEFFB8C1DDFF20EE16
:1010180010F0BD51D926BE51DA222AC2DEFF2BC2FA
:10102800DEFF2CC2DEFF2DC2DEFF2BEF08F020EE24
:1010380027F0BD51D926BE51DA2210EE2AF0BD5153
:10104800E126BE51E222DECFE6FFDDCFE5FF20EE4E
:1010580035F0BD51D926BE51DA22020EDE6E000EE1
:10106800DD6E20EE37F0BD51D926BE51DA22050ECD
:10107800DF6EBDC1DEF0BEC1DFF011EC11F0010181
:10108800B751B811D8B44BEF08F04DEF08F06BEF3B
:1010980008F003011B510101D81915E103011C5186
:1010A8000101D91910E103011D510101DA190BE100
:1010B80003011E510101DB19D8B465EF08F067EF91
:1010C80008F06BEF08F0000EB86F000EB76FB9515B
:1010D800BA11D8B472EF08F074EF08F06AEF01F0B3
:1010E80021EED4F010EE08F0BD51E126BE51E22207
:1010F800DECFE6FFDECFE6FFDECFE6FFDECFE6FFA0
:10110800B9C1E0F0BAC1E1F0D0EC36F046EF0DF02D
:1011180020EE38F0BD51D926BE51DA22110EDF6E0D
:10112800050E586F20EE33F0BD51D926BE51DA2294
:10113800DE6ADD6A20EE33F0BD51D926BE51DA22CF
:10114800020EDE6E000EDD6E20EE35F0BD51D926A2
:10115800BE51DA22020EDE6E000EDD6E20EE37F092
:10116800BD51D926BE51DA22050EDF6EB2EF05F069
:1011780020EE02F0BD51D926BE51DA22A951DE185F
:101188000DE1AA51DE180AE1AB51DE1807E1AC51B6
:10119800DE18D8A4D2EF08F0D4EF08F046EF0DF02F
:1011A80020EE0CF0BD51D926BE51DA22D451DE18FA
:1011B8000DE1D551DE180AE1D651DE1807E1D75105
:1011C800DE18D8A4EAEF08F0ECEF08F046EF0DF0CF
:1011D80020EE2AF0BD51D926BE51DA22DE6ADD6A38
:1011E80021EED8F010EE10F0BD51E126BE51E222FA
:1011F800DECFE6FFDECFE6FFDECFE6FFDECFE6FF9F
:1012080020EE0CF0BD51D926BE51DA22DECF3FF1D7
:10121800DECF40F1DECF41F1DECF42F1010E3F25B6
:10122800436F000E4021446F000E4121456F000EB0
:101238004221466F20EE0CF0BD51D926BE51DA226C
:1012480043C1DEFF44C1DEFF45C1DEFF46C1DEFF0C
:10125800B951BA11D8B433EF09F035EF09F04BEFB3
:1012680009F021EED4F010EE08F0BD51E126BE5190
:10127800E222DECFE6FFDECFE6FFDECFE6FFDECFFF
:10128800E6FFB9C1E0F0BAC1E1F0D0EC36F00101F7
:1012980020EE39F0BD51D926BE51DA22040EDF6E98
:1012A80020EE33F0BD51D926BE51DA22020EDE6E91
:1012B800000EDD6E20EE35F0BD51D926BE51DA2282
:1012C800020EDE6E000EDD6E20EE37F0BD51D9261F
:1012D800BE51DA22050EDF6E20EE38F0BD51D92658
:1012E800BE51DA22110EDF6E090E586FB2EF05F00B
:1012F80020EE38F0BD51D926BE51DA22040EDF6E39
:10130800BDC1DEF0BEC1DFF011EC11F04BEF01F012
:1013180020EE37F0BD51D926BE51DA22DF50D8B4BD
:1013280098EF09F09AEF09F09EEF09F008EC4EF0FB
:1013380046EF0DF020EE38F0BD51D926BE51DA2225
:10134800040EDF6E010E4D6FBDC1DEF0BEC1DFF0D1
:1013580011EC11F001014D19D8A4B5EF09F0B7EF60
:1013680009F046EF0DF04BEF01F057513F6F406B1E
:101378004051000AD8B4C3EF09F046EF0DF03F51D1
:10138800000AD8B48CEF08F0040AD8B4CEEF06F0FF
:10139800020AD8B446EF0DF0010AD8B4BCEF08F041
:1013A8000E0AD8B47CEF09F0030AD8B47CEF09F030
:1013B800060AD8B48CEF09F046EF0DF020EE38F0AD
:1013C800BD51D926BE51DA22100EDF6E20EE0CF088
:1013D800BD51D926BE51DA22D451DE180DE1D551BE
:1013E800DE180AE1D651DE1807E1D751DE18D8A475
:1013F80000EF0AF002EF0AF046EF0DF020EE2AF0B7
:10140800BD51D926BE51DA22DE6ADD6A20EE10F01F
:10141800BD51D926BE51DA22DECF3FF1DECF40F1F1
:10142800DECF41F1DECF42F1010E3F25436F000EC2
:101438004021446F000E4121456F000E4221466F46
:1014480020EE10F0BD51D926BE51DA2243C1DEFF8D
:1014580044C1DEFF45C1DEFF46C1DEFF20EE0CF0D1
:10146800BD51D926BE51DA22DECF3FF1DECF40F1A1
:10147800DECF41F1DECF42F1010E3F25436F000E72
:101488004021446F000E4121456F000E4221466FF6
:1014980020EE0CF0BD51D926BE51DA2243C1DEFF41
:1014A80044C1DEFF45C1DEFF46C1DEFF010E4E6FBF
:1014B800BDC1DEF0BEC1DFF011EC11F001014E1923
:1014C800D8A469EF0AF06BEF0AF046EF0DF0080EAA
:1014D800586F46EF0DF020EE33F0BD51D926BE51BE
:1014E800DA22020EDE6E000EDD6E20EE37F0BD5100
:1014F800D926BE51DA22010EDF6E060E586F46EF6E
:101508000DF020EE38F0BD51D926BE51DA22100E6A
:10151800DF6E20EE0CF0BD51D926BE51DA22D4512F
:10152800DE180DE1D551DE180AE1D651DE1807E1C3
:10153800D751DE18D8A4A3EF0AF0A5EF0AF046EFBA
:101548000DF020EE2AF0BD51D926BE51DA22DE6A0E
:10155800DD6A20EE10F0BD51D926BE51DA22DECF69
:101568003FF1DECF40F1DECF41F1DECF42F1010E97
:101578003F25436F000E4021446F000E4121456F07
:10158800000E4221466F20EE10F0BD51D926BE5103
:10159800DA2243C1DEFF44C1DEFF45C1DEFF46C19A
:1015A800DEFF20EE0CF0BD51D926BE51DA22DECF87
:1015B8003FF1DECF40F1DECF41F1DECF42F1010E47
:1015C8003F25436F000E4021446F000E4121456FB7
:1015D800000E4221466F20EE0CF0BD51D926BE51B7
:1015E800DA2243C1DEFF44C1DEFF45C1DEFF46C14A
:1015F800DEFF010E4F6FBDC1DEF0BEC1DFF011ECA2
:1016080011F001014F19D8A40CEF0BF00EEF0BF0FD
:1016180046EF0DF00A0E586F46EF0DF020EE37F04A
:10162800BD51D926BE51DA22DF50D8B41EEF0BF0D7
:1016380020EF0BF022EF0BF0B2EF05F020EE38F0C0
:10164800BD51D926BE51DA22040EDF6E010E506F4D
:10165800BDC1DEF0BEC1DFF011EC11F0010150197F
:10166800D8A439EF0BF03BEF0BF046EF0DF04BEF42
:1016780001F057513F6F406B4051000AD8B447EF13
:101688000BF046EF0DF03F51040AD8B46FEF0AF0A3
:10169800020AD8B4E2EF09F0010AD8B485EF0AF0DB
:1016A8000B0AD8B412EF0BF046EF0DF020EE38F02D
:1016B800BD51D926BE51DA22100EDF6E20EE0CF095
:1016C800BD51D926BE51DA22D451DE180DE1D551CB
:1016D800DE180AE1D651DE1807E1D751DE18D8A482
:1016E80078EF0BF07AEF0BF046EF0DF020EE2AF0D2
:1016F800BD51D926BE51DA22DE6ADD6A20EE10F02D
:10170800BD51D926BE51DA22DECF3FF1DECF40F1FE
:10171800DECF41F1DECF42F1010E3F25436F000ECF
:101728004021446F000E4121456F000E4221466F53
:1017380020EE10F0BD51D926BE51DA2243C1DEFF9A
:1017480044C1DEFF45C1DEFF46C1DEFF20EE0CF0DE
:10175800BD51D926BE51DA22DECF3FF1DECF40F1AE
:10176800DECF41F1DECF42F1010E3F25436F000E7F
:101778004021446F000E4121456F000E4221466F03
:1017880020EE0CF0BD51D926BE51DA2243C1DEFF4E
:1017980044C1DEFF45C1DEFF46C1DEFF010E516FC9
:1017A800BDC1DEF0BEC1DFF011EC11F0010151192D
:1017B800D8A4E1EF0BF0E3EF0BF046EF0DF00EEFDE
:1017C8000BF020EE37F0BD51D926BE51DA22DF509A
:1017D800D8B4F1EF0BF0F3EF0BF0F5EF0BF0B2EF3D
:1017E80005F020EE38F0BD51D926BE51DA22040E9C
:1017F800DF6E010E526FBDC1DEF0BEC1DFF011EC2D
:1018080011F001015219D8A40CEF0CF00EEF0CF0F6
:1018180046EF0DF04BEF01F057513F6F406B4051D1
:10182800000AD8B41AEF0CF046EF0DF03F51060A43
:10183800D8B45AEF0BF0010AD8B45AEF0BF00B0AE0
:10184800D8B4E5EF0BF046EF0DF057513F6F406B02
:101858004051000AD8B433EF0CF046EF0DF03F5179
:10186800040AD8B40EEF0BF046EF0DF020EE02F0AC
:10187800BD51D926BE51DA22A951DE180DE1AA516F
:10188800DE180AE1AB51DE1807E1AC51DE18D8A426
:1018980050EF0CF052EF0CF046EF0DF020EE06F092
:1018A800BD51D926BE51DA22D051DE1807E1D151F7
:1018B800DE18D8A462EF0CF064EF0CF046EF0DF0E0
:1018C8004BEF01F020EE37F0BD51D926BE51DA2298
:1018D800DF50D8B472EF0CF074EF0CF076EF0CF028
:1018E800B2EF05F020EE38F0BD51D926BE51DA220C
:1018F800040EDF6E010E536FBDC1DEF0BEC1DFF016
:1019080011EC11F001015319D8A48DEF0CF08FEFF1
:101918000CF046EF0DF04BEF01F057513F6F406B65
:101928004051000AD8B49BEF0CF046EF0DF03F5140
:10193800040AD8B43AEF0CF0030AD8B43AEF0CF022
:101948000B0AD8B466EF0CF046EF0DF020EE33F03A
:10195800BD51D926BE51DA22020EDE6E000EDD6EB2
:1019680020EE35F0BD51D926BE51DA22020EDE6EC8
:10197800000EDD6E20EE37F0BD51D926BE51DA22B9
:10198800030EDF6E20EE38F0BD51D926BE51DA22A3
:10199800020EDF6EBDC1DEF0BEC1DFF011EC11F04A
:1019A800020E0101586F010E546F46EF0DF020EE44
:1019B80002F0BD51D926BE51DA22DE6ADE6ADE6A3D
:1019C800DD6A20EE06F0BD51D926BE51DA22DE6A64
:1019D800DD6A010E586FD7EF0CF057513F6F406B1F
:1019E8004051000AD8B4FBEF0CF046EF0DF03F5120
:1019F800010AD8B4AAEF0CF0030AD8B4DBEF0CF054
:101A080046EF0DF0010120EE2DF0BD51D926BE5153
:101A1800DA22DF503F6F406B4051000AD8B417EF0D
:101A28000DF046EF0DF03F51000AD8B4F1EF0CF07D
:101A3800010AD8B455EF01F0030AD8B437EF04F01F
:101A4800010AD8B4A9EF06F0070AD8B4B9EF09F02B
:101A5800010AD8B43DEF0BF0030AD8B410EF0CF02C
:101A6800010AD8B446EF0DF00F0AD8B429EF0CF0EC
:101A7800010AD8B491EF0CF0030AD8B44BEF01F087
:101A880046EF0DF0010120EE2EF0BD51D926BE51D2
:101A9800DA220D0EDF6E20EE2DF0BD51D926BE5193
:101AA800DA2258C1DFFF54511200BB0E00016F6FDC
:101AB800706B000E726F1C0E716FBEEC4CF06FC035
:101AC800B1F070C0B2F01C0E0001B119B211D8A467
:101AD80070EF0DF072EF0DF010EF11F0B36B000E18
:101AE800B96F050EBA6FBB518A6F896BBBC08BF09B
:101AF800BCC08CF08CC08BF08C6BFF0E8B17000E6B
:101B08008C1789518B118D6F8A518C118E6F8D05B1
:101B18008E11D8B492EF0DF094EF0DF098EF0DF010
:101B280010EF11F010EF11F0BD518A6F896B20EEA4
:101B3800BDF0DECF8BF0DDCF8CF08CC08BF08C6BE2
:101B4800FF0E8B17000E8C1789518B118D6F8A51E0
:101B58008C118E6F080E8E198D11D8B4B6EF0DF05A
:101B6800B8EF0DF0BAEF0DF010EF11F0060EBF1937
:101B7800D8B4C1EF0DF0C3EF0DF0C5EF0DF010EFC5
:101B880011F0040EC019D8B4CCEF0DF0CEEF0DF063
:101B9800D0EF0DF010EF11F0080EB76F20EE06F041
:101BA800B951D926BA51DA22FF0EC9158D6F000E28
:101BB800CA158E6F000ECB158F6F000ECC15906F67
:101BC8008DC090F08F6B8E6B8D6B10EEC9F0000E90
:101BD800E614916FFF0EE614926F000EE614936FF1
:101BE800000EE614946F93C094F092C093F091C0E5
:101BF80092F0916BC9C095F0CAC096F0CBC097F02F
:101C0800CCC098F096C095F097C096F098C097F021
:101C1800986B000E9515996FFF0E96159A6F000E2A
:101C280097159B6F000E98159C6FC9C09DF0CAC090
:101C38009EF0CBC09FF0CCC0A0F0190E29EF0EF09B
:101C4800D890A0339F339E339D33E82E24EF0EF0B7
:101C5800FF0E9D15A16F000E9E15A26F000E9F1519
:101C6800A36F000EA015A46F9951A111A56F9A51E9
:101C7800A211A66F9B51A311A76F9C51A411A86F25
:101C88009151A511A96F9251A611AA6F9351A7114D
:101C9800AB6F9451A811AC6F8D51A911AD6F8E51D6
:101CA800AA11AE6F8F51AB11AF6F9051AC11B06FDD
:101CB800DE50AD190DE1DE50AE190AE1DE50AF1964
:101CC80007E1DE50B019D8A46CEF0EF06EEF0EF0FD
:101CD80096EF0EF020EE0AF0B951D926BA51DA2261
:101CE800DE50BD1907E1DE50BE19D8A47EEF0EF014
:101CF80080EF0EF096EF0EF020EE0CF0B951D926D9
:101D0800BA51DA22DF6A20EEC3F0B9C0E1FFBAC0E7
:101D1800E2FF050EDBCFE3FFE806FCE2010EB36F3E
:101D2800A3EF0EF00D0EB927000EBA23B707B7516F
:101D3800D8A4A1EF0EF0A3EF0EF0D2EF0DF0020140
:101D48000051011102110311D8B4ADEF0EF0AFEF3D
:101D58000EF010EF11F0FF0E0001D315896F000E81
:101D6800D4158A6F000ED5158B6F000ED6158C6FA3
:101D780089C08CF08B6B8A6B896B20EED3F0000ED8
:101D8800DE148D6FFF0EDE148E6F000EDE148F6F63
:101D9800000EDE14906F8FC090F08EC08FF08DC053
:101DA8008EF08D6BD3C091F0D4C092F0D5C093F073
:101DB800D6C094F092C091F093C092F094C093F082
:101DC800946B000E9115956FFF0E9215966F000E8D
:101DD8009315976F000E9415986FD3C099F0D4C0DF
:101DE8009AF0D5C09BF0D6C09CF0190E01EF0FF009
:101DF800D8909C339B339A339933E82EFCEF0EF03E
:101E0800FF0E99159D6F000E9A159E6F000E9B157B
:101E18009F6F000E9C15A06F95519D11A16F965153
:101E28009E11A26F97519F11A36F9851A011A46F93
:101E38008D51A111A56F8E51A211A66F8F51A311BB
:101E4800A76F9051A411A86F8951A511A96F8A5144
:101E5800A611AA6F8B51A711AB6F8C51A811AC6F4B
:101E6800020100510001A91913E102010151000109
:101E7800AA190EE1020102510001AB1909E10201A0
:101E880003510001AC19D8A44CEF0FF04EEF0FF03E
:101E980010EF11F0B351D8A454EF0FF056EF0FF034
:101EA80034EF10F0000EB96F050EBA6F000EB56F63
:101EB800050EB66F080EB86F20EE0CF0B551D92696
:101EC800B651DA2210EE0CF0B951E126BA51E222ED
:101ED800DE50E65CD8B073EF0FF075EF0FF079EFD6
:101EE8000FF0B5C0B9F0B6C0BAF00D0EB527000EA8
:101EF800B623B807B851D8A484EF0FF086EF0FF0D7
:101F080060EF0FF020EE0CF0B951D926BA51DA2261
:101F1800DF6A20EEC3F0B9C0E1FFBAC0E2FF050EE8
:101F2800DBCFE3FFE806FCE2FF0EC915896F000E60
:101F3800CA158A6F000ECB158B6F000ECC158C6FEF
:101F480089C08CF08B6B8A6B896B20EEC9F0000E10
:101F5800DE148D6FFF0EDE148E6F000EDE148F6F91
:101F6800000EDE14906F8FC090F08EC08FF08DC081
:101F78008EF08D6BC9C091F0CAC092F0CBC093F0BF
:101F8800CCC094F092C091F093C092F094C093F0BA
:101F9800946B000E9115956FFF0E9215966F000EBB
:101FA8009315976F000E9415986FC9C099F0CAC021
:101FB8009AF0CBC09BF0CCC09CF0190EE9EF0FF063
:101FC800D8909C339B339A339933E82EE4EF0FF083
:101FD800FF0E99159D6F000E9A159E6F000E9B15AA
:101FE8009F6F000E9C15A06F95519D11A16F965182
:101FF8009E11A26F97519F11A36F9851A011A46FC2
:102008008D51A111A56F8E51A211A66F8F51A311E9
:10201800A76F9051A411A86F8951A511A96F8A5172
:10202800A611AA6F8B51A711AB6F8C51A811AC6F79
:1020380020EE06F0B951D926BA51DA22A9C0DEFF3E
:10204800AAC0DEFFABC0DEFFACC0DEFF20EE0AF0A8
:10205800B951D926BA51DA22BDC0DEFFBEC0DDFFB4
:10206800C205C111D8A43BEF10F03DEF10F010EFFE
:1020780011F0C30E816F826B080E846F060E836F9A
:1020880032EC27F00001B46FB405D8A44EEF10F07D
:1020980050EF10F096EF0DF020EEC3F010EECDF0FB
:1020A800050EDBCFE3FFE806FCE2C30E6E6FB20E4F
:1020B8006F6F030E706F000E726F060E716F8CECEF
:1020C80050F0C9C0D3F0CAC0D4F0CBC0D5F0CCC052
:1020D800D6F0FF0E020100150001896F000E020103
:1020E800011500018A6F000E0201021500018B6FB5
:1020F800000E0201031500018C6F89C08CF08B6BF8
:102108008A6B896B000E0201001500018D6FFF0EAE
:102118000201011500018E6F000E02010215000177
:102128008F6F000E020103150001906F8FC090F0B1
:102138008EC08FF08DC08EF08D6B00C291F001C201
:1021480092F002C293F003C294F092C091F093C04F
:1021580092F094C093F0946B000E9115956FFF0E5A
:102168009215966F000E9315976F000E9415986F41
:1021780000C299F001C29AF002C29BF003C29CF01F
:10218800190ECCEF10F0D8909C339B339A339933C7
:10219800E82EC7EF10F0FF0E99159D6F000E9A15E7
:1021A8009E6F000E9B159F6F000E9C15A06F95519A
:1021B8009D11A16F96519E11A26F97519F11A36F08
:1021C8009851A011A46F8D51A111A56F8E51A21124
:1021D800A66F8F51A311A76F9051A411A86F8951B1
:1021E800A511C96F8A51A611CA6F8B51A711CB6F60
:1021F8008C51A811CC6F020EC26F000EC16FBB0EBE
:102208006F6F706B000E726F1C0E716F99EC4FF050
:10221800F6EC40F010EF11F01200DEC0D9FFDFC07D
:10222800DAFFDECF00F1DDCF01F101010051036FCC
:10223800026BDEC0D9FFDFC0DAFFDECF04F1DDCFED
:1022480005F105C104F1056BFF0E0417000E051713
:10225800025104112B6F035105112C6F000120EE60
:1022680006F0DE51D926DF51DA22DECF00F1DDCFCC
:1022780001F101010051036F026B000120EE06F02D
:10228800DE51D926DF51DA22DECF04F1DDCF05F1A8
:1022980005C104F10101056BFF0E0417000E0517B7
:1022A800025104112D6F035105112E6F000120EE0C
:1022B80010F0DE51D926DF51DA22DECF00F1DECF71
:1022C80001F1DECF02F1DECF03F1FF0E01010015AF
:1022D800046F000E0115056F000E0215066F000E43
:1022E8000315076F04C107F1066B056B046B00014A
:1022F80020EE10F0DE51D926DF51DA22000EDE146E
:102308000101086FFF0EDE14096F000EDE140A6F5C
:10231800000EDE140B6F0AC10BF109C10AF108C1E6
:1023280009F1086B000120EE10F0DE51D926DF51CB
:10233800DA22DECF0CF1DECF0DF1DECF0EF1DECFEB
:102348000FF10DC10CF10EC10DF10FC10EF101011C
:102358000F6B000E0C15106FFF0E0D15116F000E90
:102368000E15126F000E0F15136F000120EE10F0FE
:10237800DE51D926DF51DA22DECF14F1DECF15F196
:10238800DECF16F1DECF17F1190ED1EF11F00101F2
:10239800D8901733163315331433E82ECBEF11F0DA
:1023A800FF0E1415186F000E1515196F000E16156F
:1023B8001A6F000E17151B6F105118111C6F115151
:1023C80019111D6F12511A111E6F13511B111F6F16
:1023D80008511C11206F09511D11216F0A511E113E
:1023E800226F0B511F11236F045120112F6F0551BC
:1023F8002111306F06512211316F07512311326FAD
:10240800000120EE0CF0DE51D926DF51DA22DECFB2
:1024180000F1DECF01F1DECF02F1DECF03F1FF0ED6
:1024280001010015046F000E0115056F000E02155D
:10243800066F000E0315076F04C107F1066B056BE5
:10244800046B000120EE0CF0DE51D926DF51DA22B0
:10245800000EDE140101086FFF0EDE14096F000E76
:10246800DE140A6F000EDE140B6F0AC10BF109C1EE
:102478000AF108C109F1086B000120EE0CF0DE51E9
:10248800D926DF51DA22DECF0CF1DECF0DF1DECF17
:102498000EF1DECF0FF10DC10CF10EC10DF10FC120
:1024A8000EF101010F6B000E0C15106FFF0E0D15CC
:1024B800116F000E0E15126F000E0F15136F00012D
:1024C80020EE0CF0DE51D926DF51DA22DECF14F1EE
:1024D800DECF15F1DECF16F1DECF17F1190E7BEF47
:1024E80012F00101D8901733163315331433E82E40
:1024F80075EF12F0FF0E1415186F000E1515196FF1
:10250800000E16151A6F000E17151B6F10511811B3
:102518001C6F115119111D6F12511A111E6F135191
:102528001B111F6F08511C11206F09511D11216FBC
:102538000A511E11226F0B511F11236F04512011D4
:10254800336F05512111346F06512211356F075130
:102558002311366F3791F10E371737510F0B50098A
:10256800376F000120EE1AF0DE51D926DF51DA224A
:10257800DECF00F1DDCF01F101010051036F026BE5
:10258800000120EE1AF0DE51D926DF51DA22DECF23
:1025980004F1DDCF05F105C104F10101056BFF0E62
:1025A8000417000E051702510411396F0351051164
:1025B8003A6F000E3C6F000E3B6F000E3E6F000E30
:1025C8003D6F000120EE38F0DE51D926DF51DA22C6
:1025D800DF500101006F060E0017D8B4F6EF12F0B5
:1025E800F8EF12F0FEEF12F0000E486E000E476E84
:1025F800CFEF13F0000120EE2CF0DE51D926DF5189
:10260800DA22DE04D8A40BEF13F00DEF13F00FEF6E
:1026180013F0F8EF12F020EE2AF0DE51D926DF5140
:10262800DA22DECF47F0DDCF48F047504810D8B463
:1026380020EF13F022EF13F0CFEF13F020EE18F095
:10264800DE51D926DF51DA22DE50DE10D8A42FEF72
:1026580013F031EF13F03BEF13F020EE18F0DE51DA
:10266800D926DF51DA22010EDE6E000EDD6E20EE75
:1026780018F0DE51D926DF51DA224750DE5C485087
:10268800DE58D8B04AEF13F04CEF13F056EF13F0C2
:1026980020EE18F0DE51D926DF51DA22DECF47F0DE
:1026A800DDCF48F020EE1CF0DE51D926DF51DA22CA
:1026B8004750DE5C4850DE58D8B065EF13F067EF3E
:1026C80013F071EF13F020EE1CF0DE51D926DF5124
:1026D800DA22DECF47F0DDCF48F020EE25F0DE51DC
:1026E800D926DF51DA22DECF24F1DDCF25F120EE25
:1026F80025F0DE51D926DF51DA22DECF00F1DDCF19
:1027080001F147500101002748500123000120EE44
:1027180025F0DE51D926DF51DA2200C1DEFF01C1E2
:10272800DDFF20EE2AF0DE51D926DF51DA22DECF96
:1027380000F1DDCF01F147500101005F4850015B16
:10274800000120EE27F0DE51D926DF51DA2200C140
:10275800DEFF01C1DDFF20EE27F0DE51D926DF5173
:10276800DA22DE50DE10D8A4BCEF13F0BEEF13F06F
:10277800CFEF13F020EE38F0DE51D926DF51DA2200
:1027880010EE38F0DE51E126DF51E222E750080969
:10279800DF6ECFEF13F0000120EE38F0DE51D926BE
:1027A800DF51DA22DF500101386F140E4724286FF9
:1027B800000E4820296F000120EE02F0DE51D926D4
:1027C800DF51DA22DECFCAF0DECFCBF0DECFCCF09D
:1027D800DECFCDF0060ECE6FDBEC25F001012A6FBF
:1027E8002A05D8A4FAEF13F0FCEF13F051EF14F018
:1027F8002B0E00016F6F010E706F000E726F140EBA
:10280800716F99EC4FF047504810D8B40EEF14F0A0
:1028180010EF14F01AEF14F024C16FF025C170F016
:1028280047C071F048C072F099EC4FF0060E0101F4
:102838002825266F000E2921276F000E0001776FCB
:102848001A0E766F080E010128250001786F000E18
:10285800010129210001796F26C17AF027C17BF097
:10286800E1EC31F076C026F177C027F1260E0001A1
:10287800766F010E776F000E796F020E786F000E7B
:102888007B6F320E7A6F79EC4CF028C188F029C141
:1028980089F02CEC4AF001012A6F2A05D8B457EFC9
:1028A80014F059EF14F090EF14F0120E2A19D8B45E
:1028B80060EF14F062EF14F090EF14F0000120EED6
:1028C80037F0DE51D926DF51DA2210EE37F0DE512B
:1028D800E126DF51E222E7500101006F0005DF6EBB
:1028E800000120EE33F0DE51D926DF51DA22DE5026
:1028F800DE10D8A482EF14F084EF14F0BBEF14F0CC
:1029080020EE33F0DE51D926DF51DA22020EDE6ED8
:10291800000EDD6EBBEF14F0000120EE10F0DE516A
:10292800D926DF51DA22DECF00F1DECF01F1DECF8A
:1029380002F1DECF03F1475001010025046F485032
:102948000121056F000E0221066F000E0321076F9B
:10295800000120EE10F0DE51D926DF51DA2204C141
:10296800DEFF05C1DEFF06C1DEFF07C1DEFF010194
:102978002A5112000101196BE2EF14F0010E010156
:10298800216F1E6B226B236B00EF15F00101216B89
:10299800010E1E6F010E226F010E236F00EF15F05E
:1029A8000101216B010E226F010E236F00EF15F05C
:1029B8000101216B226B236B00EF15F0B35100016D
:1029C800EB6FEC6BEC51000AD8B4EDEF14F0C2EFEA
:1029D80014F0EB51000AD8B4C2EF14F0010AD8B4CD
:1029E800CAEF14F0030AD8B4D4EF14F0010AD8B42B
:1029F800DCEF14F0C2EF14F02151D8A406EF15F063
:102A080008EF15F020EF15F01E51D8A40EEF15F0C1
:102A180010EF15F020EF15F02251D8A416EF15F09D
:102A280018EF15F020EF15F02351D8B41EEF15F06C
:102A380020EF15F05AEF18F023EEB8F011EE29F058
:102A48002F0EDBCFE3FFE806FCE28CC249F18DC212
:102A58004AF18EC24BF18FC24CF10001EABF3EEF42
:102A680015F0EA5109E1F10EE95DD8A03EEF15F045
:102A780040EF15F04AEF18F0A7EC53F000016F058E
:102A880007E1020E7019D8A44CEF15F04EEF15F0BF
:102A980095EF17F0CCEC55F0060AD8A456EF15F0D0
:102AA80058EF15F095EF17F0CCEC55F060EC51F0BD
:102AB80002018C5100016F1913E102018D510001CF
:102AC80070190EE102018E510001711909E102012C
:102AD8008F5100017219D8A474EF15F076EF15F034
:102AE80095EF17F0A7EC53F0A7EC53F060EC51F01A
:102AF80060EC51F06FC029F170C02AF171C02BF160
:102B080072C02CF1010129290CE12A290AE12B299B
:102B180008E12C29D8B493EF15F095EF15F095EF4F
:102B280017F029050BE17F0E2C192A112B11D8B4A7
:102B3800A0EF15F0A2EF15F095EF17F060EC51F04B
:102B48006FC01AF170C01BF171C01CF172C01DF189
:102B580001011A290CE11B290AE11C2908E11D2998
:102B6800D8B4B9EF15F0BBEF15F095EF17F01A05CB
:102B78000BE17F0E1D191B111C11D8B4C6EF15F0FF
:102B8800C8EF15F095EF17F060EC51F0000E00015A
:102B98006F6F010E706F000E726F100E716FBEECCA
:102BA8004CF0000E00016E6F010E6F6FB20E706F69
:102BB800030E716F000E736F060E726FA2EC44F075
:102BC80000016E516F11D8B4ECEF15F0EEEF15F06F
:102BD80016EF16F0000E6E6F010E6F6FAB0E706F72
:102BE800FD0E716F000E736F060E726FA2EC44F04B
:102BF80000016E516F11D8B404EF16F006EF16F00D
:102C080016EF16F0000E6E6F010E6F6FC5EC4FF0E9
:102C180000016E516F11D8A414EF16F016EF16F0DC
:102C28005AEF18F0000E776F400E766FCAEC4DF031
:102C3800000E0001776F800E766FCAEC4DF060ECE5
:102C480051F0630E00016F190DE1530E70190AE17E
:102C5800820E711907E1630E7219D8A436EF16F0C7
:102C680038EF16F095EF17F0100EE927FF0EEA235C
:102C780085EF17F0CCEC55F00101186FCCEC55F04E
:102C88000101286F28510001EB6FEC6B020EEB2756
:102C9800000EEC23EB51E95FEC51EA5B65EF17F0AE
:102CA80060EC51F06FC02DF170C02EF171C02FF1A2
:102CB80072C030F185EF17F060EC51F06FC031F160
:102CC80070C032F171C033F172C034F185EF17F082
:102CD8001F6B99EF16F060EC51F06FC010F170C0E7
:102CE80011F171C012F172C013F1020E01011F61DE
:102CF80080EF16F082EF16F097EF16F01F51040DD3
:102D08000C0EF326000EF422290EF324D96E010EC0
:102D1800F420DA6E10C1DEFF11C1DEFF12C1DEFF42
:102D280013C1DEFF1F2B040E285F040E28619FEFDE
:102D380016F0A1EF16F06FEF16F085EF17F0206B85
:102D4800D0EF16F060EC51F06FC014F170C015F1BF
:102D580071C016F172C017F1020E01012061B7EFC0
:102D680016F0B9EF16F0CEEF16F02051040D140E40
:102D7800F326000EF422290EF324D96E010EF42056
:102D8800DA6E14C1DEFF15C1DEFF16C1DEFF17C102
:102D9800DEFF202B040E285F040E2861D6EF16F004
:102DA800D8EF16F0A6EF16F085EF17F0030E28659A
:102DB800E0EF16F0E2EF16F085EF17F060EC51F057
:102DC8006FC024F170C025F171C026F172C027F1DF
:102DD80024C1EBF025C1ECF026C1EDF027C1EEF0DF
:102DE8000001D890EE33ED33EC33EB33EBC04DF10B
:102DF800ECC04EF1EDC04FF1EEC050F14DC151F1B4
:102E08004EC152F14FC153F150C154F14DC1EBF0D5
:102E18004EC1ECF04FC1EDF050C1EEF0D890EE335A
:102E2800ED33EC33EB33EBC024F1ECC025F1EDC00E
:102E380026F1EEC027F101012451512725515223D3
:102E4800265153232751542324C1EBF025C1ECF01C
:102E580026C1EDF027C1EEF00001D890EE33ED3336
:102E6800EC33EB33EB51010151270001EC51010127
:102E780052230001ED51010153230001EE510101DC
:102E88005423040E0101285F85EF17F060EC51F020
:102E98006FC055F170C056F171C057F172C058F14A
:102EA80045EF17F0CCEC55F00101196F280785EFB5
:102EB80017F028C176F00001776BCAEC4DF085EF6A
:102EC80017F001011851010AD8B454EF16F0020A9C
:102ED800D8B460EF16F0050AD8B46CEF16F02C0AD7
:102EE800D8B4A3EF16F0190AD8B4DAEF16F0060A28
:102EF800D8B456EF17F0030AD8B44AEF17F05DEFCD
:102F080017F00001EABF93EF17F0EA5106E1E9056F
:102F1800D8B091EF17F093EF17F03EEF16F04AEFA5
:102F280018F04AEF18F02151D8B49DEF17F09FEF31
:102F380017F0ADEF17F021EE29F012EE6CF02F0E1E
:102F4800DBCFE3FFE806FCE2C0EC56F0010E01011E
:102F5800B36F1E51D8B4B3EF17F0B5EF17F05AEFAF
:102F680018F0BCEC56F05AEF18F02351D8B4BFEF64
:102F780017F0C1EF17F05AEF18F04DC190F24EC19B
:102F880091F24FC192F250C193F251C194F252C1E1
:102F980095F253C196F254C197F26CC200F26DC219
:102FA80001F26EC202F26FC203F278C204F279C271
:102FB80005F27AC206F27BC207F27CC208F27DC231
:102FC80009F27EC20AF27FC20BF274C210F275C215
:102FD80011F276C212F277C213F288C214F289C2D1
:102FE80015F28AC216F28BC217F270C20CF271C2C5
:102FF8000DF272C20EF273C20FF2020180518111FA
:1030080082118311D8B40BEF18F00DEF18F028EFE8
:1030180018F080C218F281C219F282C21AF283C271
:103028001BF28451851186118711D8B41EEF18F050
:1030380020EF18F028EF18F084C21CF285C21DF2A8
:1030480086C21EF287C21FF2030E0101B36F5AEF48
:1030580018F02251D8B433EF18F035EF18F05AEFC2
:1030680018F0040E0201906F000E916F000E926F1F
:10307800000E936F020E946F000E956F000E966F00
:10308800000E976F0101B36B5AEF18F00101195147
:10309800020AD8B497EF17F0070AD8B4B9EF17F0B7
:1030A800030AD8B42DEF18F05AEF18F01200000EEA
:1030B8000201C66F000EC56FE6EC51F00201C46F45
:1030C800C4C282F00001836B000E856F000E846F0E
:1030D8000EEC4FF082C0C7F283C0C8F20201C7519C
:1030E800C811D8B47AEF18F07CEF18F07EEF18F01A
:1030F800C3EF1BF04C0E00016F6F020E706F000ED5
:10310800726F140E716FBEEC4CF002014C390F0B4C
:10311800040AD8B492EF18F094EF18F096EF18F06C
:10312800C3EF1BF0FF0E5C1501017F6F000E02015B
:103138005D150101806F000E02015E150101816FAE
:10314800000E02015F150101826F7FC182F1816B60
:10315800806B7F6B22EE5CF0000EDE14836FFF0E37
:10316800DE14846F000EDE14856F000EDE14866F89
:1031780085C186F184C185F183C184F1836B5CC20A
:1031880087F15DC288F15EC289F15FC28AF188C1A8
:1031980087F189C188F18AC189F18A6B000E871588
:1031A8008B6FFF0E88158C6F000E89158D6F000EC2
:1031B8008A158E6F5CC28FF15DC290F15EC291F18B
:1031C8005FC292F1190EEEEF18F0D8909233913356
:1031D80090338F33E82EE9EF18F0FF0E8F15936FB9
:1031E800000E9015946F000E9115956F000E9215B4
:1031F800966F8B519311976F8C519411986F8D51D5
:103208009511996F8E5196119A6F835197119B6FF3
:10321800845198119C6F855199119D6F86519A110F
:103228009E6F7F519B1102015C6F010180519C11BF
:1032380002015D6F010181519D1102015E6F010163
:1032480082519E1102015F6FFF0E581501017F6FB9
:10325800000E020159150101806F000E02015A1576
:103268000101816F000E02015B150101826F7FC1B0
:1032780082F1816B806B7F6B22EE58F0000EDE14BA
:10328800836FFF0EDE14846F000EDE14856F000E50
:10329800DE14866F85C186F184C185F183C184F10E
:1032A800836B58C287F159C288F15AC289F15BC24F
:1032B8008AF188C187F189C188F18AC189F18A6B4D
:1032C800000E87158B6FFF0E88158C6F000E891501
:1032D8008D6F000E8A158E6F58C28FF159C290F10A
:1032E8005AC291F15BC292F1190E80EF19F0D89091
:1032F8009233913390338F33E82E7BEF19F0FF0E22
:103308008F15936F000E9015946F000E9115956FA1
:10331800000E9215966F8B519311976F8C519411E3
:10332800986F8D519511996F8E5196119A6F83519F
:1033380097119B6F845198119C6F855199119D6FBE
:1033480086519A119E6F7F519B110201586F01019E
:1033580080519C110201596F010181519D11020197
:103368005A6F010182519E1102015B6F58290AE1CF
:10337800592908E15A2906E15B29D8A4C6EF19F0B2
:10338800C8EF19F0CAEF19F0C3EF1BF000515C1930
:103398000FE101515D190CE102515E1909E1035178
:1033A8005F19D8B4DAEF19F0DCEF19F089EF1AF0E9
:1033B8005C515D115E115F11D8B4E5EF19F0E7EFCC
:1033C80019F089EF1AF05C290CE15D290AE15E2900
:1033D80008E15F29D8B4F3EF19F0F5EF19F089EF98
:1033E8001AF0FF0E001101017F6FFF0E020101119B
:1033F8000101806FFF0E020102110101816F000EB1
:10340800020103110101826F02015C5101017F1960
:1034180015E102015D510101801910E102015E51BF
:10342800010181190BE102015F5101018219D8B430
:1034380020EF1AF022EF1AF089EF1AF0FF0E0201BE
:10344800001101017F6FFF0E020101110101806F60
:10345800000E020102110101816F000E0201031129
:103468000101826F02015C5101017F1915E102011E
:103478005D510101801910E102015E5101018119BC
:103488000BE102015F5101018219D8B44EEF1AF025
:1034980050EF1AF089EF1AF0FF0E02010011010136
:1034A8007F6F020101510101806F02010251010188
:1034B800816F020103510101826F02015C51010118
:1034C8007F1915E102015D510101801910E1020126
:1034D8005E51010181190BE102015F51010182195D
:1034E800D8B479EF1AF07BEF1AF089EF1AF00201DD
:1034F8005C0509E1E00E5F195D115E11D8A487EF44
:103508001AF089EF1AF0C3EF1BF002014E510101C6
:10351800806F7F6B22EE4EF0DECF81F1DDCF82F13E
:1035280082C181F1826BFF0E8117000E82177F51D5
:10353800811102014E6F01018051821102014F6F0A
:103548004C510F0B01017F6FD8907F37D8907F3592
:103558000201C46F4C510F0B01017F6F050E7F6193
:10356800B8EF1AF0BAEF1AF0BCEF1AF0C3EF1BF07D
:1035780002014C510F0B01017F6F050E7F65C7EFEC
:103588001AF0C9EF1AF0A8EF1BF0EC0E0201C425DF
:103598000001766F776BFF0E7723CAEC4DF0A8EF2A
:1035A8001BF002015C515D115E115F11D8A4DFEFC1
:1035B8001AF0E1EF1AF0E3EF1AF0C3EF1BF0C45171
:1035C8004E5DC56F4F51D8A04F05C66FC5C282F07A
:1035D800C6C283F0000E0001856F000E846F0EECEA
:1035E8004FF082C0C7F283C0C8F20201C751C811A8
:1035F800D8A401EF1BF003EF1BF00CEF1BF04C0EEF
:103608000101006F020E016FE2EC3DF0C3EF1BF009
:103618009C0E0001AE6F020EAF6F960EB06FFE0EDD
:10362800B16FC7C2B2F0C8C2B3F01CEC51F0C3EF1F
:103638001BF00201C4514E5DC56F4F51D8A04F0514
:10364800C66FC5C26EF0C6C26FF0BDEC43F06EC067
:10365800C7F26FC0C8F2C5C282F0C6C283F0C7C243
:1036680084F0C8C285F00EEC4FF082C0C7F283C068
:10367800C8F2C7C259F1C8C25AF10FEC2EF0C3EF15
:103688001BF00201C4514E5DC56F4F51D8A04F05C4
:10369800C66FC5C26EF0C6C26FF0BDEC43F06EC017
:1036A800C7F26FC0C8F2C5C282F0C6C283F0C7C2F3
:1036B80084F0C8C285F00EEC4FF082C0C7F283C018
:1036C800C8F20201C751C811D8A46DEF1BF06FEF03
:1036D8001BF0C3EF1BF05C290CE15D290AE15E29B0
:1036E80008E15F29D8B47BEF1BF07DEF1BF0C3EF37
:1036F8001BF05C515D115E115F11D8B486EF1BF0B1
:1037080088EF1BF0C3EF1BF058C223F359C224F310
:103718005AC225F35BC226F323C359F124C35AF1D5
:1037280025C35BF126C35CF1C5C25DF1C6C25EF17B
:1037380038EC1EF0C3EF1BF04EC276F04FC277F0A4
:10374800CAEC4DF0C3EF1BF00201555101017F6F28
:10375800806B8051000AD8B4B4EF1BF0A0EF1BF0C7
:103768007F51010AD8B4D5EF1AF0070AD8B445EF4B
:103778001BF0170AD8B41DEF1BF0A0EF1BF01200C6
:1037880000019B51D96EDA6ADECFF6FFDDCFF7FF75
:10379800F86A0800F550250AD8A4D5EF1BF0D7EF32
:1037A8001BF025EF1EF09B51D96EDA6ADE2A000E57
:1037B800DD22000E446E000E436E43C051F0456892
:1037C8004668A06B05EF1CF051829B51D96EDA6AEE
:1037D800DE2A000EDD2205EF1CF0010EA06F05EFBA
:1037E8001CF09B51D96EDA6ADECFF6FFDDCFF7FF0A
:1037F800F86A0800F550300AD8B4E8EF1BF0F1EF8A
:103808001BF0A051D8B40BEF1CF00DEF1CF0F5EF36
:103818001BF09BC06EF09CC06FF03BEC47F06EC095
:1038280043F06FC044F044BE1EEF1CF01CEF1CF0C8
:1038380023EF1CF05180436C441ED8B0442A000189
:103848009B51D96EDA6ADECFF6FFDDCFF7FFF86A53
:103858000800F5502E0AD8A434EF1CF036EF1CF0FF
:1038680046EF1CF09B51D96EDA6ADE2A000EDD2283
:103878009BC06EF09CC06FF03BEC47F06EC045F00B
:103888006FC046F000019B51D96EDA6ADECFA6F010
:10389800DDCFA7F0A6C0F6FFA7C0F7FFF86A0800BB
:1038A800F5CFA5F063EF1CF0A64BA72B7EEF1CF01D
:1038B800690EA56F7EEF1CF0A56B7EEF1CF0A5517D
:1038C800580AD8B45CEF1CF03C0AD8B45CEF1CF082
:1038D8000D0AD8B45CEF1CF0050AD8B458EF1CF0F8
:1038E800190AD8B45CEF1CF00D0AD8B45CEF1CF0D0
:1038F80060EF1CF0A6C0F6FFA7C0F7FFF86A080043
:10390800F550640AD8B48BEF1CF08DEF1CF0C5EFAE
:103918001CF0A6C0F6FFA7C0F7FFF86A0800F5502C
:10392800690AD8A49AEF1CF09CEF1CF0EBEF1CF08E
:10393800C5EF1CF09CC0D9FF9DC0DAFFDF50DF2A1D
:10394800DF2AD96EDA6ADECFA1F0DDCFA2F0000E51
:10395800A2BFFF0EA36FA46FD0EF1CF09CC0D9FFCD
:103968009DC0DAFF040EDF26DF5CD96EDA6ADECF8F
:10397800A1F0DECFA2F0DECFA3F0DECFA4F0D0EF2F
:103988001CF0A551690AD8B49EEF1CF0050AD8B4FA
:10399800B2EF1CF0D0EF1CF0010EA6259E6F000EB2
:1039A800A7219F6F9B51D96EDA6A9EC0DEFF9FC028
:1039B800DDFF9AC086F0A1C087F0A2C088F0A3C03E
:1039C80089F0A4C08AF004EC30F037EF1EF0A6C0EE
:1039D800F6FFA7C0F7FFF86A0800F550780AD8B4D0
:1039E800F8EF1CF0FAEF1CF042EF1DF0A6C0F6FF4E
:1039F800A7C0F7FFF86A0800F550580AD8B407EFCF
:103A08001DF009EF1DF042EF1DF0A6C0F6FFA7C09C
:103A1800F7FFF86A0800F550750AD8A416EF1DF0EC
:103A280018EF1DF095EF1DF042EF1DF09CC0D9FF77
:103A38009DC0DAFFDF50DF2ADF2AD96EDA6ADECFCF
:103A48009EF0DDCF9FF09EC0A1F09FC0A2F0A36BB7
:103A5800A46B4DEF1DF09CC0D9FF9DC0DAFF040E8A
:103A6800DF26DF5CD96EDA6ADECFA1F0DECFA2F006
:103A7800DECFA3F0DECFA4F04DEF1DF0A551690A0B
:103A8800D8B41AEF1DF0050AD8B42FEF1DF04DEF8A
:103A98001DF0010EA6259E6F000EA7219F6F9B515A
:103AA800D96EDA6A9EC0DEFF9FC0DDFF80EF1DF091
:103AB8009AC086F0A1C087F0A2C088F0A3C089F0A0
:103AC800A4C08AF0BBEC39F037EF1EF09AC086F03C
:103AD800A1C087F0A2C088F0A3C089F0A4C08AF072
:103AE800A6C0F6FFA7C0F7FFF86A0800F5CF8BF06D
:103AF8000CEC36F037EF1EF0A6C0F6FFA7C0F7FFB4
:103B0800F86A0800F550580AD8B46AEF1DF02D0A73
:103B1800D8B45CEF1DF00D0AD8B46AEF1DF095EF2C
:103B28001DF0A06B9B51D96EDA6ADECFF6FFDDCFB0
:103B3800F7FFF86A0800F550730AD8A4A6EF1DF03D
:103B4800A8EF1DF0B2EF1DF09B51D96EDA6ADE2A9C
:103B5800000EDD22010EA06F01EF1EF09B51D96E01
:103B6800DA6ADECFF6FFDDCFF7FFF86A0800F55016
:103B78006C0AD8A4C2EF1DF0C4EF1DF001EF1EF0CF
:103B88009B51D96EDA6ADECF9EF0DDCF9FF0010E31
:103B98009E27000E9F239EC0F6FF9FC0F7FFF86A7E
:103BA8000800F5506C0AD8A4DCEF1DF0DEEF1DF01C
:103BB80001EF1EF09B51D96EDA6ADECF9EF0DDCFA1
:103BC8009FF0020E9E27000E9F239EC0F6FF9FC007
:103BD800F7FFF86A0800F550730AD8A4F6EF1DF04D
:103BE800F8EF1DF001EF1EF09B51D96EDA6A030E53
:103BF800DE26000EDD22AEEF1DF0A051D8B407EF8F
:103C08001EF009EF1EF01CEF1EF09AC078F09CC061
:103C1800D9FF9DC0DAFF020EDF26DF5CD96EDA6AB3
:103C2800DECF79F0DECF7AF0A9EC33F037EF1EF073
:103C380000019B51D96EDA6ADE2A000EDD2237EFC9
:103C48001EF09B51D96EDA6ADECFF6FFDDCFF7FFA3
:103C5800F86A0800F550706F716B9AC072F06EECDC
:103C680045F01CEF1EF012000001EC6B000E010184
:103C7800A96F000EAA6F000EAB6F000EAC6F000E9E
:103C8800BA6F000EB96FD00E00016F6F010E706F22
:103C9800000E726F140E716FBEEC4CF0000E010135
:103CA800BD6F000EBE6FD251D311D8B45EEF1EF0B7
:103CB80060EF1EF0A4EF20F0D051D111D8B467EF17
:103CC8001EF069EF1EF0A4EF20F0D051606F5F6B1B
:103CD800D0C161F1D1C162F162C161F1626BFF0EC5
:103CE8006117000E62175F516111D06F6051621148
:103CF800D16FD251606F5F6B21EED2F0DECF61F1F0
:103D0800DDCF62F162C161F1626BFF0E6117000ED7
:103D180062175F516111D26F60516211D36FBFC1D9
:103D2800EDF0C0C1EEF0BBEF1EF0EDC0D9FFEEC064
:103D3800DAFFDE50D21907E1DE50D319D8A4A7EF75
:103D48001EF0A9EF1EF0AFEF1EF0EDC0BDF1EEC002
:103D5800BEF1D3EF1EF0000120EE2FF0ED51D92671
:103D6800EE51DA22DECFEDF0DDCFEEF0EC2B0001E4
:103D7800ED51EE11D8B4C3EF1EF0C5EF1EF0D3EF2E
:103D88001EF0EC51800A01015F6FCA51800A5F5D25
:103D9800D8A0D1EF1EF0D3EF1EF099EF1EF001016D
:103DA800BD51BE11D8B4DBEF1EF0DDEF1EF0A4EF5D
:103DB80020F020EE06F0BD51D926BE51DA22D051AE
:103DC800DE1809E1D151DE18D8B4EDEF1EF0EFEF9F
:103DD8001EF000EF1FF020EE02F0BD51D926BE51B3
:103DE800DA22DE50DE10DE10DE10D8A4FEEF1EF060
:103DF80000EF1FF0A4EF20F059C1A9F15AC1AAF1B0
:103E08005BC1ABF15CC1ACF1DC390F0B5F6F606B70
:103E1800D8905F376037D8905F3760375F515D5D06
:103E2800B96F60515E59BA6FC8EC32F0E806D8A491
:103E380020EF1FF022EF1FF0A4EF20F00101DDA317
:103E480028EF1FF02AEF1FF045EF1FF0DDA92FEF35
:103E58001FF031EF1FF03BEF1FF020EE2EF0BD51A9
:103E6800D926BE51DA22050EDF6E98EF1FF020EE3C
:103E78002EF0BD51D926BE51DA22030EDF6E98EF1F
:103E88001FF0DDA14AEF1FF04CEF1FF067EF1FF0A6
:103E9800DDA951EF1FF053EF1FF05DEF1FF020EE8B
:103EA8002EF0BD51D926BE51DA22070EDF6E98EFEB
:103EB8001FF020EE2EF0BD51D926BE51DA22060E93
:103EC800DF6E98EF1FF0DDA56CEF1FF06EEF1FF0AF
:103ED80089EF1FF0DDA973EF1FF075EF1FF07FEF7B
:103EE8001FF020EE2EF0BD51D926BE51DA220A0E5F
:103EF800DF6E98EF1FF020EE2EF0BD51D926BE518F
:103F0800DA22090EDF6E98EF1FF0DDA98EEF1FF0A1
:103F180090EF1FF098EF1FF020EE2EF0BD51D9263C
:103F2800BE51DA22040EDF6EFF0ED8155F6F000E49
:103F3800D915606F000EDA15616F000EDB15626F20
:103F48005FC162F1616B606B5F6B21EED8F0000EB0
:103F5800DE14636FFF0EDE14646F000EDE14656FEF
:103F6800000EDE14666F65C166F164C165F163C158
:103F780064F1636BD8C167F1D9C168F1DAC169F13D
:103F8800DBC16AF168C167F169C168F16AC169F1A9
:103F98006A6B000E67156B6FFF0E68156C6F000E6D
:103FA80069156D6F000E6A156E6FD8C16FF1D9C1B2
:103FB80070F1DAC171F1DBC172F1190EE9EF1FF08E
:103FC800D8907233713370336F33E82EE4EF1FF0FB
:103FD800FF0E6F15736F000E7015746F000E71155C
:103FE800756F000E7215766F6B517311776F6C5188
:103FF8007411786F6D517511796F6E5176117A6FF2
:10400800635177117B6F645178117C6F6551791119
:104018007D6F66517A117E6F5F517B11D86F605149
:104028007C11D96F61517D11DA6F62517E11DB6F9E
:10403800FF0ED4155F6F000ED515606F000ED615F4
:10404800616F000ED715626F5FC162F1616B606BC3
:104058005F6B21EED4F0000EDE14636FFF0EDE14EA
:10406800646F000EDE14656F000EDE14666F65C1A6
:1040780066F164C165F163C164F1636BD4C167F132
:10408800D5C168F1D6C169F1D7C16AF168C167F1D4
:1040980069C168F16AC169F16A6B000E67156B6FD7
:1040A800FF0E68156C6F000E69156D6F000E6A15AE
:1040B8006E6FD4C16FF1D5C170F1D6C171F1D7C19E
:1040C80072F1190E6DEF20F0D8907233713370339E
:1040D8006F33E82E68EF20F0FF0E6F15736F000E38
:1040E8007015746F000E7115756F000E7215766F6E
:1040F8006B517311776F6C517411786F6D51751125
:10410800796F6E5176117A6F635177117B6F6451B5
:1041180078117C6F655179117D6F66517A117E6FC8
:104128005F517B11D46F60517C11D56F61517D1146
:10413800D66F62517E11D76F6DEC00F0A4EF20F0BE
:1041480012002E50D96EDA6ADECFF6FFDDCFF7FF08
:10415800F86A0800F550250AD8A4B5EF20F0B7EFA3
:1041680020F0FDEF22F02E50D96EDA6ADE2A000E1A
:10417800DD22000E446E000E436E43C051F04568C8
:104188004668326AE5EF20F051822E50D96EDA6A1D
:10419800DE2A000EDD22E5EF20F0010E326EE5EF9B
:1041A80020F02E50D96EDA6ADECFF6FFDDCFF7FFAA
:1041B800F86A0800F550300AD8B4C8EF20F0D1EFFB
:1041C80020F03250D8B4EBEF20F0EDEF20F0D5EF2F
:1041D80020F02EC001F02FC002F094EC47F001C08F
:1041E80043F002C044F044BEFEEF20F0FCEF20F0A4
:1041F80003EF21F05180436C441ED8B0442A2E505E
:10420800D96EDA6ADECFF6FFDDCFF7FFF86A08006D
:10421800F5502E0AD8A413EF21F015EF21F025EF61
:1042280021F02E50D96EDA6ADE2A000EDD222EC069
:1042380001F02FC002F094EC47F001C045F002C035
:1042480046F02E50D96EDA6ADECF38F0DDCF39F07D
:1042580038C0F6FF39C0F7FFF86A0800F5CF37F025
:1042680041EF21F0384A392A5CEF21F0690E376EA8
:104278005CEF21F0376A5CEF21F03750580AD8B468
:104288003AEF21F03C0AD8B43AEF21F00D0AD8B43D
:104298003AEF21F0050AD8B436EF21F0190AD8B45C
:1042A8003AEF21F00D0AD8B43AEF21F03EEF21F0B1
:1042B80038C0F6FF39C0F7FFF86A0800F550640AFD
:1042C800D8B469EF21F06BEF21F0A1EF21F038C0ED
:1042D800F6FF39C0F7FFF86A0800F550690AD8A454
:1042E80078EF21F07AEF21F0C7EF21F0A1EF21F06C
:1042F8002F50D96EDA6ADF50DF2ADF2AD96EDA6AE0
:10430800DECF33F0DDCF34F0000E34BEFF0E356E55
:10431800366EACEF21F02F50D96EDA6A040EDF2624
:10432800DF5CD96EDA6ADECF33F0DECF34F0DECF71
:1043380035F0DECF36F0ACEF21F03750690AD8B44B
:104348007CEF21F0050AD8B48FEF21F0ACEF21F013
:10435800010E3824306E000E3920316E2E50D96E81
:10436800DA6A30C0DEFF31C0DDFF2DC019F033C07E
:104378001AF034C01BF035C01CF036C01DF0F4EC48
:1043880030F00FEF23F038C0F6FF39C0F7FFF86AB6
:104398000800F550780AD8B4D4EF21F0D6EF21F010
:1043A8001CEF22F038C0F6FF39C0F7FFF86A0800A2
:1043B800F550580AD8B4E3EF21F0E5EF21F01CEFEF
:1043C80022F038C0F6FF39C0F7FFF86A0800F55048
:1043D800750AD8A4F2EF21F0F4EF21F06FEF22F084
:1043E8001CEF22F02F50D96EDA6ADF50DF2ADF2A5D
:1043F800D96EDA6ADECF30F0DDCF31F030C033F07D
:1044080031C034F0356A366A27EF22F02F50D96E62
:10441800DA6A040EDF26DF5CD96EDA6ADECF33F0A3
:10442800DECF34F0DECF35F0DECF36F027EF22F0E6
:104438003750690AD8B4F6EF21F0050AD8B40AEF64
:1044480022F027EF22F0010E3824306E000E3920BA
:10445800316E2E50D96EDA6A30C0DEFF31C0DDFF12
:104468005AEF22F02DC019F033C01AF034C01BF0F7
:1044780035C01CF036C01DF066EC3AF00FEF23F0A3
:104488002DC019F033C01AF034C01BF035C01CF031
:1044980036C01DF038C0F6FF39C0F7FFF86A0800CB
:1044A800F5CF1EF091EC37F00FEF23F038C0F6FF90
:1044B80039C0F7FFF86A0800F550580AD8B444EF35
:1044C80022F02D0AD8B436EF22F00D0AD8B444EF02
:1044D80022F06FEF22F0326A2E50D96EDA6ADECF00
:1044E800F6FFDDCFF7FFF86A0800F550730AD8A485
:1044F80080EF22F082EF22F08CEF22F02E50D96E5E
:10450800DA6ADE2A000EDD22010E326EDBEF22F0BF
:104518002E50D96EDA6ADECFF6FFDDCFF7FFF86AE4
:104528000800F5506C0AD8A49CEF22F09EEF22F008
:10453800DBEF22F02E50D96EDA6ADECF30F0DDCF15
:1045480031F0010E3026000E312230C0F6FF31C0A6
:10455800F7FFF86A0800F5506C0AD8A4B6EF22F005
:10456800B8EF22F0DBEF22F02E50D96EDA6ADECFF8
:1045780030F0DDCF31F0020E3026000E312230C08F
:10458800F6FF31C0F7FFF86A0800F550730AD8A49F
:10459800D0EF22F0D2EF22F0DBEF22F02E50D96ECE
:1045A800DA6A030EDE26000EDD2288EF22F0325092
:1045B800D8B4E1EF22F0E3EF22F0F5EF22F02DC0BE
:1045C8000BF02F50D96EDA6A020EDF26DF5CD96E47
:1045D800DA6ADECF0CF0DECF0DF07BEC34F00FEFB3
:1045E80023F02E50D96EDA6ADE2A000EDD220FEF94
:1045F80023F02E50D96EDA6ADECFF6FFDDCFF7FF53
:10460800F86A0800F550036E046A2DC005F029EC1D
:1046180046F0F5EF22F01200E40E00016E6F010E75
:104628006F6FAAEC4EF02B0E0001756F030E766FBC
:10463800C0EC52F001015D6F54EF24F02B0E000125
:10464800756F030E766F75EC3FF075EF24F002017D
:104658003A510101E45D02013B510101E5590201B2
:104668003C510101E65902013D510101E759D8A029
:1046780040EF23F042EF23F075EF24F0020EE4251B
:1046880002013A6F000E0101E52102013B6F000EA5
:104698000101E62102013C6F000E0101E721020140
:1046A8003D6F2B0E0001756F030E766FC80E776F86
:1046B800040E786F000E7A6F320E796FECEC47F0CB
:1046C8002B0E0001EC6F030EED6FE80EEE6F030E7C
:1046D800EF6FE8EC41F075EF24F002013A51010167
:1046E800E45D02013B510101E55902013C51010120
:1046F800E65902013D510101E759D8A086EF23F0A0
:1047080088EF23F075EF24F02B0E0001EC6F030EF9
:10471800ED6F0CEC45F075EF24F02B0E0001756F72
:10472800030E766F89EC4DF075C060F176C061F1CB
:10473800010160516111D8B4A4EF23F0A6EF23F072
:10474800DEEF23F02B0E0001756F030E766FE2EC9F
:1047580046F075C060F176C061F12B0E0001756FEF
:10476800030E766FC80E776F040E786F000E7A6F9F
:10477800320E796FECEC47F0000E01015F6F000E0E
:104788005E6FD3EF23F0C80E5E25D96E040E5F214D
:10479800DA6EDF50A6EC55F001015E4B5F2B6051DD
:1047A8005E5D61515F59D8A0DCEF23F0DEEF23F0A6
:1047B800C7EF23F002013A510101E45D02013B51C8
:1047C8000101E55902013C510101E65902013D513F
:1047D8000101E759D8A0F3EF23F0F5EF23F075EFC7
:1047E80024F02B0E0001756F030E766FD6EC50F097
:1047F8000009D8B402EF24F004EF24F075EF24F098
:10480800020E0101E42502013A6F000E0101E521C3
:1048180002013B6F000E0101E62102013C6F000E10
:104828000101E72102013D6F680E0001AE6F050E20
:10483800AF6FF70EB06FFD0EB16FC5C1B2F0C6C154
:10484800B3F0C3C1B4F0C4C1B5F0C1C1B6F0C2C1C0
:10485800B7F01CEC51F0F60E0001AE6FFF0EAF6F13
:10486800680EB06F050EB16F98EC55F02B0E000175
:10487800E06F030EE16F680EE26F050EE36F000E46
:10488800E56F320EE46F3DEC3CF075EF24F02B0E33
:104898000001786F030E796F19EC54F075EF24F06E
:1048A8005D515B6F5C6B5C51000AD8B45EEF24F01D
:1048B80075EF24F05B51000AD8B422EF23F0010A07
:1048C800D8B42BEF23F0030AD8B471EF23F0010A10
:1048D800D8B491EF23F0070AD8B44BEF24F075EF62
:1048E80024F01200010E0001AF6F000EAE6F000E33
:1048F800B16F080EB06F060EB26F040EB36F010EE3
:10490800B56F000EB46FB60E6E6FB20E6F6F030EFA
:10491800706F000E726F060E716F8CEC50F0FF0E08
:104928000201001500018D6F000E02010115000142
:104938008E6F000E0201021500018F6F000E02013A
:1049480003150001906F8DC090F08F6B8E6B8D6B8F
:10495800000E020100150001916FFF0E0201011502
:104968000001926F000E020102150001936F000E04
:10497800020103150001946F93C094F092C093F064
:1049880091C092F0916B00C295F001C296F002C2FC
:1049980097F003C298F096C095F097C096F098C02B
:1049A80097F0986B000E9515996FFF0E96159A6FF4
:1049B800000E97159B6F000E98159C6F00C29DF016
:1049C80001C29EF002C29FF003C2A0F0190EF2EFDE
:1049D80024F0D890A0339F339E339D33E82EEDEF1B
:1049E80024F0FF0E9D15A16F000E9E15A26F000EFC
:1049F8009F15A36F000EA015A46F9951A111A56F63
:104A08009A51A211A66F9B51A311A76F9C51A41193
:104A1800A86F9151A511A96F9251A611AA6F935130
:104A2800A711AB6F9451A811AC6F8D51A911BC6F30
:104A38008E51AA11BD6F8F51AB11BE6F9051AC1141
:104A4800BF6FFF0E89158D6F000E8A158E6F000ED1
:104A58008B158F6F000E8C15906F8DC090F08F6B3B
:104A68008E6B8D6B000E8915916FFF0E8A15926FF4
:104A7800000E8B15936F000E8C15946F93C094F0F5
:104A880092C093F091C092F0916B89C095F08AC062
:104A980096F08BC097F08CC098F096C095F097C0B0
:104AA80096F098C097F0986B000E9515996FFF0EC9
:104AB80096159A6F000E97159B6F000E98159C6FB0
:104AC80089C09DF08AC09EF08BC09FF08CC0A0F07A
:104AD800190E74EF25F0D890A0339F339E339D3381
:104AE800E82E6FEF25F0FF0E9D15A16F000E9E15A5
:104AF800A26F000E9F15A36F000EA015A46F995109
:104B0800A111A56F9A51A211A66F9B51A311A76F6E
:104B18009C51A411A86F9151A511A96F9251A6118A
:104B2800AA6F9351A711AB6F9451A811AC6F8D5117
:104B3800A911C66F8E51AA11C76F8F51AB11C86FDB
:104B48009051AC11C96FC06BC16BC26BC36BC46BA6
:104B5800C56BAB0E816FFD0E826F080E846F060E5B
:104B6800836F32EC27F00001AD6FAD05D8A4BFEF1D
:104B780025F0C1EF25F0D9EF25F0AE0E6F6F706B01
:104B8800000E726F1C0E716F99EC4FF0F6EC40F04E
:104B98000001AD6FAD05D8A4D4EF25F0D6EF25F010
:104BA800D9EF25F0050EDAEF25F0AD51120000011E
:104BB800DD6B02010051011102110311D8A4E7EFC6
:104BC80025F0E9EF25F0F3EF25F0110E0001CE19DD
:104BD800D8A4F1EF25F0F3EF25F0C7EF26F0020196
:104BE80000050BE17F0E031901110211D8B4FFEF84
:104BF80025F001EF26F0C7EF26F00001CA290CE1E5
:104C0800CB290AE1CC2908E1CD29D8B40EEF26F04A
:104C180010EF26F0CBEF26F0000ECA11CF6F000E72
:104C2800CB11D06F000ECC11D16FFF0ECD11D26F0A
:104C3800CF290CE1D0290AE1D12908E1D229D8B439
:104C480028EF26F02AEF26F0CBEF26F0000ECA1147
:104C5800CF6F000ECB11D06FFF0ECC11D16FFF0EAE
:104C6800CD11D26FCF290CE1D0290AE1D12908E171
:104C7800D229D8B442EF26F044EF26F0CBEF26F045
:104C8800000ECA11CF6FFF0ECB11D06FFF0ECC11E3
:104C9800D16FFF0ECD11D26FCF290CE1D0290AE1D7
:104CA800D12908E1D229D8B45CEF26F05EEF26F0CE
:104CB800CBEF26F0CA51020100190001CF6FCB518A
:104CC800020101190001D06FCC5102010219000143
:104CD800D16FCD51020103190001D26F02010C51AD
:104CE8000001CF15D36F02010D510001D015D46F0B
:104CF80002010E510001D115D56F02010F510001BB
:104D0800D215D66FD351D411D511D611D8A48FEF9F
:104D180026F091EF26F09BEF26F0CAC0D7F0CBC063
:104D2800D8F0CCC0D9F0CDC0DAF0A3EF26F010C28D
:104D3800D7F011C2D8F012C2D9F013C2DAF0D7C036
:104D48006EF0D8C06FF0D9C070F0DAC071F074ECB2
:104D58004EF06EC0DBF06FC0DCF00001DB51DC11FF
:104D6800D8A4B9EF26F0BBEF26F0CFEF26F0D7C0D6
:104D780089F0D8C08AF0D9C08BF0DAC08CF076EC14
:104D880024F00001DD6F0001DD5131EF27F0AB0E9B
:104D9800DB6FFD0EDC6FDBC081F0DCC082F0080E3B
:104DA800846F000E836F32EC27F00001DD6FDD05A4
:104DB800D8A4E1EF26F0E3EF26F0C7EF26F0450E82
:104DC800706F000E6F6FBBEC54F0000E0001706F37
:104DD800000E6F6FBBEC54F0000E00016F6F400EB9
:104DE800706F550E716FAA0E726FF7EC52F0400E8D
:104DF8006CEC55F00001CE516CEC55F0000E000142
:104E0800706F000E6F6FBBEC54F000C26FF001C200
:104E180070F002C271F003C272F0F7EC52F0CAC02F
:104E28006FF0CBC070F0CCC071F0CDC072F0F7EC71
:104E380052F000C258F201C259F202C25AF203C239
:104E48005BF2CAC05CF2CBC05DF2CCC05EF2CDC0F2
:104E58005FF2CEC055F2C7EF26F01200020EB1EC99
:104E680050F00B0E0001715D1A0E7259D8A03FEF79
:104E780027F041EF27F064EF27F0FF0E80EC54F0A5
:104E88000001856F85A74BEF27F04DEF27F050EF16
:104E980027F0040E83EF28F0EBEC2BF0020EB1ECB8
:104EA80050F00B0E0001715D1A0E7259D8A05FEF19
:104EB80027F061EF27F064EF27F0030E83EF28F067
:104EC80010EC2FF06EC087F06FC088F0000187519A
:104ED8008811D8A472EF27F074EF27F076EF27F047
:104EE80061EF27F087C0D9FF88C0DAFFDECF85F0F1
:104EF800DDCF86F0010E8513000E861387C0D9FF1B
:104F080088C0DAFF85C0DEFF86C0DDFF20EE02F034
:104F18008751D9268851DA22DECF71F0DDCF72F0C1
:104F2800020E07EC52F053EC56F0000E0201456FEA
:104F3800000E446F85927A0E7BEC55F00101CC513E
:104F48007BEC55F081C0F6FF82C0F7FF000EF86ECB
:104F58000E0EF76403D00800F55005D0F6CFE9FF30
:104F6800F7CFEAFFEF507BEC55F0010E00018125E9
:104F7800856F000E8221866F85C0F6FF86C0F7FF19
:104F8800000EF86E0E0EF76403D00800F55005D039
:104F9800F6CFE9FFF7CFEAFFEF507BEC55F0020EB2
:104FA80000018125856F000E8221866F85C0F6FF7E
:104FB80086C0F7FF000EF86E0E0EF76403D00800E7
:104FC800F55005D0F6CFE9FFF7CFEAFFEF507BECBD
:104FD80055F0030E00018125856F000E8221866F32
:104FE80085C0F6FF86C0F7FF000EF86E0E0EF76458
:104FF80003D00800F55005D0F6CFE9FFF7CFEAFF58
:10500800EF507BEC55F0040E00018125856F000EF2
:105018008221866F85C0F6FF86C0F7FF000EF86E06
:105028000E0EF76403D00800F55005D0F6CFE9FF5F
:10503800F7CFEAFFEF507BEC55F0050E0001812514
:10504800856F000E8221866F85C0F6FF86C0F7FF48
:10505800000EF86E0E0EF76403D00800F55005D068
:10506800F6CFE9FFF7CFEAFFEF507BEC55F0F0C041
:10507800D9FFF1C0DAFFDF507BEC55F0000120EEDC
:1050880001F0F051D926F151DA22DF507BEC55F0CE
:10509800000120EE02F0F051D926F151DA22DF505A
:1050A8007BEC55F0000120EE03F0F051D926F151C8
:1050B800DA22DF507BEC55F0000120EE04F0F051CD
:1050C800D926F151DA22DF507BEC55F0000120EEB1
:1050D80005F0F051D926F151DA22DF507BEC55F07A
:1050E800000184517BEC55F0000183517BEC55F0B5
:1050F80085820F0E02014427000E4523010E12007F
:105108000001E86FFF0E0001DE6FFF0EDF6FFF0E7C
:10511800E06FFF0EE16F000EE36F440EE26F000ECA
:10512800E56F430EE46F3EEC4EF00001E76FE705D4
:10513800D8A4A1EF28F0A3EF28F0B5EF29F0000ECE
:105148006F6F060E706F010E716F010E726FF7ECC4
:1051580052F08CC26FF08DC270F08EC271F08FC2A7
:1051680072F0F7EC52F0000E00016F6F800E706F56
:10517800000E716F000E726FF7EC52F0030E000113
:10518800E819D8A4CAEF28F0CCEF28F0D8EF28F017
:10519800000E6F6F000E706F000E716F000E726F51
:1051A800F7EC52F0E2EF28F06CC26FF06DC270F0CD
:1051B8006EC271F06FC272F0F7EC52F0000E00018F
:1051C8006F6F000E706F000E716F000E726FF7EC4C
:1051D80052F0000E00016F6F000E706F000E716FBD
:1051E800000E726FF7EC52F0000E00016F6F000EA8
:1051F800706F000E716F000E726FF7EC52F0B20E06
:1052080000016F6F030E706F000E726F060E716FE4
:1052180099EC4FF0000E0001716FCA0E706F6CECC4
:1052280054F0630E00016F6F530E706F820E716F32
:10523800630E726FF7EC52F00C0E6CEC55F0990E91
:1052480000016E6FFD0E6F6FC5EC4FF000016E51DF
:105258006CEC55F0990E00016F6FFD0E706FEEEC5F
:105268004BF02A0E6CEC55F0040E6CEC55F0000E69
:1052780000016F6F000E706F000E716F000E726F7D
:10528800F7EC52F0350E6CEC55F0010E6CEC55F065
:105298000001E8516CEC55F0030E0001E819D8A4A0
:1052A80058EF29F05AEF29F07AEF29F0320E6CEC1A
:1052B80055F0040E6CEC55F06CC26FF06DC270F0D6
:1052C8006EC271F06FC272F0F7EC52F0360E6CECF1
:1052D80055F0040E6CEC55F098C26FF099C270F05E
:1052E8009AC271F09BC272F0F7EC52F0370E6CEC78
:1052F80055F0040E6CEC55F0010E6CEC55F0030EF5
:105308006CEC55F0060E6CEC55F00F0E6CEC55F08D
:10531800390E6CEC55F0020E6CEC55F0020E0001E3
:10532800706F000E6F6FBBEC54F03D0E6CEC55F0D7
:10533800070E6CEC55F0010E6CEC55F0B20E000146
:105348006F6F030E706F000E726F060E716F99EC1F
:105358004FF0FF0E6CEC55F071EC41F0010EB6EF1A
:1053680029F0000E1200000E00016E6F000E6F6F24
:10537800AAEC4EF06EC0ECF06FC0EDF070C0EEF02D
:1053880071C0EFF0030117510001EC5D03011851E2
:105398000001ED59030119510001EE5903011A5199
:1053A8000001EF59D8A0DBEF29F0DDEF29F0BDEFC0
:1053B8002AF09EEF2AF0040E0201906F000E916F02
:1053C800000E926F000E936F020E946F000E956F91
:1053D800000E966F000E976F010E0101B46FBDEFBE
:1053E8002AF003EC54F00009D8A4FDEF29F0FFEFF0
:1053F80029F010EF2AF0020E0201906F000E916F53
:10540800000E926F000E936F040E946F000E956F4E
:10541800000E966F000E976F020E020190199111FF
:1054280092119311D8A41BEF2AF01DEF2AF02AEF4E
:105438002AF0000E006F000E016F000E026F000EC2
:10544800036F030E0101B46F2FEF2AF09007000ECF
:10545800915B925B935B020E020194199511961170
:105468009711D8A43AEF2AF03CEF2AF041EF2AF03E
:10547800020E0101B46FBDEF2AF09407000E955B90
:10548800965B975BBDEF2AF0A6EC4BF00009D8B409
:1054980050EF2AF052EF2AF0BDEF2AF00A0E02016F
:1054A800946F000E956F000E966F000E976FFF0EAB
:1054B800906FFF0E916FFF0E926F7F0E936F010139
:1054C800B36B010EB46FBDEF2AF003EC54F0000982
:1054D800D8B471EF2AF073EF2AF0BDEF2AF0C0ECD0
:1054E80056F00009D8B47BEF2AF07DEF2AF0BDEF23
:1054F8002AF00F0E0201906F000E916F000E926F4E
:10550800000E936F030E0101B319D8A48EEF2AF091
:1055180090EF2AF094EF2AF0020EB36F96EF2AF07C
:10552800010EB36F010EB46FBDEF2AF00101B46B29
:10553800BDEF2AF00101B4510001EA6FEB6BEB51AA
:10554800000AD8B4AAEF2AF09AEF2AF0EA51000A22
:10555800D8B4DFEF29F0010AD8B4F5EF29F0030A2F
:10556800D8B448EF2AF0010AD8B469EF2AF09AEFC4
:105578002AF0010E0001EC250301176F000E00014F
:10558800ED210301186F000E0001EE210301196FD0
:10559800000E0001EF2103011A6F1200C0EC55F054
:1055A8000101CC6B020124912495249918EC50F048
:1055B800000E0201276F000E266F0101CB6B320E21
:1055C800E82EFED77EEC56F0140E00017C6F790EA3
:1055D800E82EFED77C2FFCD700D0FD0E80EC54F0CF
:1055E80000017C6F7CA1FBEF2AF0FDEF2AF0F1EFC0
:1055F8002AF0000E4E6E000E4D6E800E716FFE0E7C
:10560800E1EC54F0140E0001726F150E716F040E68
:1056180007EC52F01F0E0001726F7169060E07EC5D
:1056280052F0000E0001726F000E716F080E07EC49
:1056380052F0140E0001726F130E716F0A0E07EC10
:1056480052F04DC071F04EC072F0000E07EC52F0EF
:10565800000E0001726F000E716F000E07EC52F021
:10566800140E0001726F150E716F020E07EC52F0E6
:10567800A90E0001716F580ECEEC54F078EC56F07C
:105688006EC0F0F06FC0F1F00D0E0001716F800E6A
:10569800CEEC54F0230E0001716F820ECEEC54F064
:1056A800400E0001716F830ECEEC54F00C0E000119
:1056B800726F120E716F860E07EC52F0120E000117
:1056C800716F840ECEEC54F0050E0001726FEE0E71
:1056D800716F8A0E07EC52F0F0C0D9FFF1C0DAFF03
:1056E800DF500001716FC40ECEEC54F000000001D1
:1056F80020EE01F0F051D926F151DA22DF50716F16
:10570800C50ECEEC54F00000000120EE02F0F0517E
:10571800D926F151DA22DF50716FC20ECEEC54F067
:105728000000000120EE03F0F051D926F151DA22F1
:10573800DF50716FC30ECEEC54F00000000120EE74
:1057480004F0F051D926F151DA22DF50716FC00E02
:10575800CEEC54F00000000120EE05F0F051D926FF
:10576800F151DA22DF50716FC10ECEEC54F0000017
:10577800040E0001716FFF0ECEEC54F0010E000113
:10578800756F000E746F000EA4EC51F0010E00014D
:10579800756F000E746F100EA4EC51F0040E00012A
:1057A800756F720E746F140EA4EC51F0DB0E0001CD
:1057B800716FFB0ECEEC54F0000E0001726F120EEA
:1057C800716F120E07EC52F003EC54F0120020EE49
:1057D80002F04950D9264A50DA22DECF74F0DDCFE4
:1057E80075F020EE04F04B50D9264C50DA22DECF6B
:1057F80076F0DDCF77F000017451765D7D6F7551DD
:1058080077597E6FD8907D357A6F7E357B6F0EEF36
:105818002CF00000FF0E80EC54F00001746F74ABA4
:1058280018EF2CF01AEF2CF026EF2CF07A07D8A0FE
:105838007B077A517B11D8A424EF2CF026EF2CF0AB
:105848000DEF2CF0FF0E80EC54F00001746F74BB68
:1058580030EF2CF032EF2CF0FCEF2CF0140E726FBE
:10586800150E716F140E07EC52F020EE02F049503D
:10587800D9264A50DA22DECF71F0DDCF72F0100E51
:1058880007EC52F020EE02F04950D9264A50DA22AD
:10589800DECF71F0DDCF72F0120E07EC52F0FF0E82
:1058A80080EC54F000017C6F7C511009716FFF0E81
:1058B800CEEC54F0FF0E80EC54F000017C6F7C516C
:1058C8002009716FFF0ECEEC54F0280E00017D0305
:1058D800F3CF74F0F4CF75F07E03F350752774C0DE
:1058E8007AF075C07BF07AEF2CF00000FF0E80ECA8
:1058F80054F00001746F74AB84EF2CF086EF2CF039
:1059080092EF2CF07A07D8A07B077A517B11D8A4A4
:1059180090EF2CF092EF2CF079EF2CF0FF0E80EC4A
:1059280054F00001746F74BB9CEF2CF09EEF2CF0C8
:10593800FCEF2CF04BC07FF04CC080F020EE02F062
:105948004950D9264A50DA22DECF78F0DDCF79F0F7
:10595800E8EF2CF020EE02F07F51D9268051DA22B0
:10596800DECF74F0DDCF75F07851745F7951755BD7
:1059780020EE02F07F51D9268051DA2274C0DEFF72
:1059880075C0DDFF20EE04F07F51D9268051DA2260
:10599800DECF74F0DDCF75F07851745F7951755BA7
:1059A80020EE04F07F51D9268051DA2274C0DEFF40
:1059B80075C0DDFF20EE08F07F51D9268051DA222C
:1059C800DECF7FF0DDCF80F07F518011D8A4EFEFDC
:1059D8002CF0F1EF2CF0AEEF2CF0150E7D25716F49
:1059E800140E7E21726F020E07EC52F0FDEF2CF0C0
:1059F800FF001200000E01015A6F000E596F010ED0
:105A080002012E27000E2F2330233123010E01011E
:105A1800BB25BB6F000EBC21BC6F040EBC5DD8B0AB
:105A280018EF2DF01AEF2DF01EEF2DF0040EBC6FBD
:105A3800000EBB6FBFC15DF1C0C15EF1EEEF2DF08E
:105A4800010120EE33F05D51D9265E51DA22DE5095
:105A5800DE10D8B432EF2DF034EF2DF0E1EF2DF059
:105A680020EE33F05D51D9265E51DA22DECFECF01C
:105A7800DDCFEDF0FF0E0001EC25EE6FFF0EED21FE
:105A8800EF6F010120EE33F05D51D9265E51DA2225
:105A9800EEC0DEFFEFC0DDFF20EE33F05D51D9260A
:105AA8005E51DA22DE50DE10D8A45DEF2DF05FEFF4
:105AB8002DF0E1EF2DF020EE2EF05D51D9265E514C
:105AC800DA220D0EDE18D8A46CEF2DF06EEF2DF053
:105AD800E1EF2DF0050E0001EC6F000EED6F0101F6
